{
  "_format": "hh-sol-artifact-1",
  "contractName": "MockLendingPool",
  "sourceName": "contracts/mocks/MockLendingPool.sol",
  "abi": [
    {
      "inputs": [
        {
          "internalType": "address",
          "name": "asset",
          "type": "address"
        },
        {
          "internalType": "uint256",
          "name": "amount",
          "type": "uint256"
        },
        {
          "internalType": "address",
          "name": "onBehalfOf",
          "type": "address"
        },
        {
          "internalType": "uint16",
          "name": "",
          "type": "uint16"
        }
      ],
      "name": "deposit",
      "outputs": [],
      "stateMutability": "nonpayable",
      "type": "function"
    },
    {
      "inputs": [
        {
          "internalType": "address",
          "name": "",
          "type": "address"
        },
        {
          "internalType": "address",
          "name": "",
          "type": "address"
        }
      ],
      "name": "deposits",
      "outputs": [
        {
          "internalType": "uint256",
          "name": "",
          "type": "uint256"
        }
      ],
      "stateMutability": "view",
      "type": "function"
    },
    {
      "inputs": [
        {
          "internalType": "address",
          "name": "asset",
          "type": "address"
        },
        {
          "internalType": "uint256",
          "name": "amount",
          "type": "uint256"
        },
        {
          "internalType": "address",
          "name": "to",
          "type": "address"
        }
      ],
      "name": "withdraw",
      "outputs": [
        {
          "internalType": "uint256",
          "name": "",
          "type": "uint256"
        }
      ],
      "stateMutability": "nonpayable",
      "type": "function"
    }
  ],
  "bytecode": "0x608060405234801561001057600080fd5b50610413806100206000396000f3fe608060405234801561001057600080fd5b50600436106100415760003560e01c806369328dec146100465780638f601f661461006b578063e8eda9df14610093575b600080fd5b6100596100543660046102ad565b6100a8565b60405190815260200160405180910390f35b6100596100793660046102e9565b600060208181529281526040808220909352908152205481565b6100a66100a136600461031c565b6101d9565b005b6001600160a01b0383166000908152602081815260408083203384529091528120548311156101275760405162461bcd60e51b815260206004820152602160248201527f496e73756666696369656e742062616c616e636520696e204d6f636b20506f6f6044820152601b60fa1b606482015260840160405180910390fd5b6001600160a01b03841660009081526020818152604080832033845290915281208054859290610158908490610388565b909155505060405163a9059cbb60e01b81526001600160a01b0383811660048301526024820185905285169063a9059cbb906044016020604051808303816000875af11580156101ac573d6000803e3d6000fd5b505050506040513d601f19601f820116820180604052508101906101d091906103a1565b50919392505050565b6040516323b872dd60e01b8152336004820152306024820152604481018490526001600160a01b038516906323b872dd906064016020604051808303816000875af115801561022c573d6000803e3d6000fd5b505050506040513d601f19601f8201168201806040525081019061025091906103a1565b506001600160a01b03808516600090815260208181526040808320938616835292905290812080548592906102869084906103ca565b909155505050505050565b80356001600160a01b03811681146102a857600080fd5b919050565b6000806000606084860312156102c257600080fd5b6102cb84610291565b9250602084013591506102e060408501610291565b90509250925092565b600080604083850312156102fc57600080fd5b61030583610291565b915061031360208401610291565b90509250929050565b6000806000806080858703121561033257600080fd5b61033b85610291565b93506020850135925061035060408601610291565b9150606085013561ffff8116811461036757600080fd5b939692955090935050565b634e487b7160e01b600052601160045260246000fd5b8181038181111561039b5761039b610372565b92915050565b6000602082840312156103b357600080fd5b815180151581146103c357600080fd5b9392505050565b8082018082111561039b5761039b61037256fea2646970667358221220d9d1f3de9aa48585e664dafe4020e0e0b3a10021bb91cdfc7d4ca65c485238db64736f6c63430008140033",
  "linkReferences": {},
  "deployedLinkReferences": {}
}