{
  "_format": "hh-sol-artifact-1",
  "contractName": "EcoCivicDeposit",
  "sourceName": "contracts/EcoCivicDeposit.sol",
  "abi": [
    {
      "inputs": [
        {
          "internalType": "address",
          "name": "_depositToken",
          "type": "address"
        },
        {
          "internalType": "address",
          "name": "_aaveLendingPool",
          "type": "address"
        }
      ],
      "stateMutability": "nonpayable",
      "type": "constructor"
    },
    {
      "inputs": [
        {
          "internalType": "address",
          "name": "owner",
          "type": "address"
        }
      ],
      "name": "OwnableInvalidOwner",
      "type": "error"
    },
    {
      "inputs": [
        {
          "internalType": "address",
          "name": "account",
          "type": "address"
        }
      ],
      "name": "OwnableUnauthorizedAccount",
      "type": "error"
    },
    {
      "inputs": [],
      "name": "ReentrancyGuardReentrantCall",
      "type": "error"
    },
    {
      "anonymous": false,
      "inputs": [
        {
          "indexed": true,
          "internalType": "address",
          "name": "user",
          "type": "address"
        },
        {
          "indexed": false,
          "internalType": "uint256",
          "name": "amount",
          "type": "uint256"
        }
      ],
      "name": "Deposited",
      "type": "event"
    },
    {
      "anonymous": false,
      "inputs": [
        {
          "indexed": true,
          "internalType": "address",
          "name": "previousOwner",
          "type": "address"
        },
        {
          "indexed": true,
          "internalType": "address",
          "name": "newOwner",
          "type": "address"
        }
      ],
      "name": "OwnershipTransferred",
      "type": "event"
    },
    {
      "anonymous": false,
      "inputs": [
        {
          "indexed": false,
          "internalType": "address",
          "name": "account",
          "type": "address"
        }
      ],
      "name": "Paused",
      "type": "event"
    },
    {
      "anonymous": false,
      "inputs": [
        {
          "indexed": false,
          "internalType": "address",
          "name": "account",
          "type": "address"
        }
      ],
      "name": "Unpaused",
      "type": "event"
    },
    {
      "anonymous": false,
      "inputs": [
        {
          "indexed": true,
          "internalType": "address",
          "name": "to",
          "type": "address"
        },
        {
          "indexed": false,
          "internalType": "uint256",
          "name": "amount",
          "type": "uint256"
        }
      ],
      "name": "Withdrawn",
      "type": "event"
    },
    {
      "inputs": [],
      "name": "aaveLendingPool",
      "outputs": [
        {
          "internalType": "contract IAave",
          "name": "",
          "type": "address"
        }
      ],
      "stateMutability": "view",
      "type": "function"
    },
    {
      "inputs": [
        {
          "internalType": "uint256",
          "name": "amount",
          "type": "uint256"
        }
      ],
      "name": "deposit",
      "outputs": [],
      "stateMutability": "nonpayable",
      "type": "function"
    },
    {
      "inputs": [],
      "name": "depositToken",
      "outputs": [
        {
          "internalType": "contract IERC20",
          "name": "",
          "type": "address"
        }
      ],
      "stateMutability": "view",
      "type": "function"
    },
    {
      "inputs": [
        {
          "internalType": "address",
          "name": "to",
          "type": "address"
        },
        {
          "internalType": "uint256",
          "name": "amount",
          "type": "uint256"
        }
      ],
      "name": "emergencyWithdraw",
      "outputs": [],
      "stateMutability": "nonpayable",
      "type": "function"
    },
    {
      "inputs": [
        {
          "internalType": "address",
          "name": "user",
          "type": "address"
        }
      ],
      "name": "getUserDeposit",
      "outputs": [
        {
          "internalType": "uint256",
          "name": "",
          "type": "uint256"
        }
      ],
      "stateMutability": "view",
      "type": "function"
    },
    {
      "inputs": [],
      "name": "owner",
      "outputs": [
        {
          "internalType": "address",
          "name": "",
          "type": "address"
        }
      ],
      "stateMutability": "view",
      "type": "function"
    },
    {
      "inputs": [],
      "name": "pause",
      "outputs": [],
      "stateMutability": "nonpayable",
      "type": "function"
    },
    {
      "inputs": [],
      "name": "paused",
      "outputs": [
        {
          "internalType": "bool",
          "name": "",
          "type": "bool"
        }
      ],
      "stateMutability": "view",
      "type": "function"
    },
    {
      "inputs": [],
      "name": "renounceOwnership",
      "outputs": [],
      "stateMutability": "nonpayable",
      "type": "function"
    },
    {
      "inputs": [
        {
          "internalType": "address",
          "name": "newOwner",
          "type": "address"
        }
      ],
      "name": "transferOwnership",
      "outputs": [],
      "stateMutability": "nonpayable",
      "type": "function"
    },
    {
      "inputs": [],
      "name": "unpause",
      "outputs": [],
      "stateMutability": "nonpayable",
      "type": "function"
    },
    {
      "inputs": [
        {
          "internalType": "address",
          "name": "",
          "type": "address"
        }
      ],
      "name": "userDeposits",
      "outputs": [
        {
          "internalType": "uint256",
          "name": "",
          "type": "uint256"
        }
      ],
      "stateMutability": "view",
      "type": "function"
    },
    {
      "inputs": [
        {
          "internalType": "uint256",
          "name": "amount",
          "type": "uint256"
        },
        {
          "internalType": "address",
          "name": "to",
          "type": "address"
        }
      ],
      "name": "withdraw",
      "outputs": [],
      "stateMutability": "nonpayable",
      "type": "function"
    }
  ],
  "bytecode": "0x60c060405234801561001057600080fd5b5060405162000feb38038062000feb8339810160408190526100319161019f565b338061005857604051631e4fbdf760e01b8152600060048201526024015b60405180910390fd5b61006181610133565b50600180556001600160a01b0382166100bc5760405162461bcd60e51b815260206004820152601d60248201527f496e76616c6964206465706f73697420746f6b656e2061646472657373000000604482015260640161004f565b6001600160a01b03811661011c5760405162461bcd60e51b815260206004820152602160248201527f496e76616c69642041617665206c656e64696e6720706f6f6c206164647265736044820152607360f81b606482015260840161004f565b6001600160a01b039182166080521660a0526101d2565b600080546001600160a01b038381166001600160a01b0319831681178455604051919092169283917f8be0079c531659141344cd1fd0a4f28419497f9722a3daafe3b4186f6b6457e09190a35050565b80516001600160a01b038116811461019a57600080fd5b919050565b600080604083850312156101b257600080fd5b6101bb83610183565b91506101c960208401610183565b90509250929050565b60805160a051610db462000237600039600081816101f0015281816102f2015281816109ae0152610a9e0152600081816101c9015281816102ba015281816103d0015281816106fd015281816108db015281816109dd0152610a620152610db46000f3fe608060405234801561001057600080fd5b50600436106100ce5760003560e01c80638da5cb5b1161008c578063c084b10b11610066578063c084b10b1461019b578063c89039c5146101c4578063e9d337b8146101eb578063f2fde38b1461021257600080fd5b80638da5cb5b1461015057806395ccea6714610175578063b6b55f251461018857600080fd5b8062f714ce146100d35780630ba36dcd146100e85780633f4ba83a1461011b5780635c975abb14610123578063715018a6146101405780638456cb5914610148575b600080fd5b6100e66100e1366004610c5f565b610225565b005b6101086100f6366004610c8b565b60026020526000908152604090205481565b6040519081526020015b60405180910390f35b6100e66104ec565b6003546101309060ff1681565b6040519015158152602001610112565b6100e6610573565b6100e6610587565b6000546001600160a01b03165b6040516001600160a01b039091168152602001610112565b6100e6610183366004610cad565b610610565b6100e6610196366004610cd7565b610808565b6101086101a9366004610c8b565b6001600160a01b031660009081526002602052604090205490565b61015d7f000000000000000000000000000000000000000000000000000000000000000081565b61015d7f000000000000000000000000000000000000000000000000000000000000000081565b6100e6610220366004610c8b565b610b61565b61022d610b9c565b806001600160a01b03811661027b5760405162461bcd60e51b815260206004820152600f60248201526e496e76616c6964206164647265737360881b60448201526064015b60405180910390fd5b610283610bc9565b600083116102a35760405162461bcd60e51b815260040161027290610cf0565b604051631a4ca37b60e21b81526001600160a01b037f000000000000000000000000000000000000000000000000000000000000000081166004830152602482018590523060448301526000917f0000000000000000000000000000000000000000000000000000000000000000909116906369328dec906064016020604051808303816000875af115801561033d573d6000803e3d6000fd5b505050506040513d601f19601f820116820180604052508101906103619190610d1c565b9050600081116103a75760405162461bcd60e51b815260206004820152601160248201527015da5d1a191c985dd85b0819985a5b1959607a1b6044820152606401610272565b60405163a9059cbb60e01b81526001600160a01b038481166004830152602482018390526000917f00000000000000000000000000000000000000000000000000000000000000009091169063a9059cbb906044016020604051808303816000875af115801561041b573d6000803e3d6000fd5b505050506040513d601f19601f8201168201806040525081019061043f9190610d35565b9050806104995760405162461bcd60e51b815260206004820152602260248201527f546f6b656e207472616e7366657220746f20726563697069656e74206661696c604482015261195960f21b6064820152608401610272565b836001600160a01b03167f7084f5476618d8e60b11ef0d7d3f06914655adb8793e28ff7f018d4c76d505d5836040516104d491815260200190565b60405180910390a250506104e760018055565b505050565b6104f4610b9c565b60035460ff166105335760405162461bcd60e51b815260206004820152600a602482015269139bdd081c185d5cd95960b21b6044820152606401610272565b6003805460ff191690556040513381527f5db9ee0a495bf2e6ff9c91a7834c1ba4fdd244a5e8aa4e537bd38aeae4b073aa906020015b60405180910390a1565b61057b610b9c565b6105856000610bf3565b565b61058f610b9c565b60035460ff16156105d35760405162461bcd60e51b815260206004820152600e60248201526d105b1c9958591e481c185d5cd95960921b6044820152606401610272565b6003805460ff191660011790556040513381527f62e78cea01bee320cd4e420270b5ea74000d11b0c9f74754ebdbfc544b05a25890602001610569565b610618610b9c565b816001600160a01b0381166106615760405162461bcd60e51b815260206004820152600f60248201526e496e76616c6964206164647265737360881b6044820152606401610272565b610669610bc9565b60035460ff166106b45760405162461bcd60e51b81526020600482015260166024820152754e6f7420696e20656d657267656e637920737461746560501b6044820152606401610272565b600082116106d45760405162461bcd60e51b815260040161027290610cf0565b60405163a9059cbb60e01b81526001600160a01b038481166004830152602482018490526000917f00000000000000000000000000000000000000000000000000000000000000009091169063a9059cbb906044016020604051808303816000875af1158015610748573d6000803e3d6000fd5b505050506040513d601f19601f8201168201806040525081019061076c9190610d35565b9050806107bb5760405162461bcd60e51b815260206004820152601b60248201527f456d657267656e6379207769746864726177616c206661696c656400000000006044820152606401610272565b836001600160a01b03167f7084f5476618d8e60b11ef0d7d3f06914655adb8793e28ff7f018d4c76d505d5846040516107f691815260200190565b60405180910390a2506104e760018055565b60035460ff16156108505760405162461bcd60e51b815260206004820152601260248201527110dbdb9d1c9858dd081a5cc81c185d5cd95960721b6044820152606401610272565b610858610bc9565b600081116108785760405162461bcd60e51b815260040161027290610cf0565b336108b65760405162461bcd60e51b815260206004820152600e60248201526d24b73b30b634b21039b2b73232b960911b6044820152606401610272565b6040516323b872dd60e01b8152336004820152306024820152604481018290526000907f00000000000000000000000000000000000000000000000000000000000000006001600160a01b0316906323b872dd906064016020604051808303816000875af115801561092c573d6000803e3d6000fd5b505050506040513d601f19601f820116820180604052508101906109509190610d35565b9050806109975760405162461bcd60e51b8152602060048201526015602482015274151bdad95b881d1c985b9cd9995c8819985a5b1959605a1b6044820152606401610272565b60405163095ea7b360e01b81526001600160a01b037f000000000000000000000000000000000000000000000000000000000000000081166004830152602482018490527f0000000000000000000000000000000000000000000000000000000000000000169063095ea7b3906044016020604051808303816000875af1158015610a26573d6000803e3d6000fd5b505050506040513d601f19601f82011682018060405250810190610a4a9190610d35565b5060405163e8eda9df60e01b81526001600160a01b037f00000000000000000000000000000000000000000000000000000000000000008116600483015260248201849052306044830152600060648301527f0000000000000000000000000000000000000000000000000000000000000000169063e8eda9df90608401600060405180830381600087803b158015610ae257600080fd5b505af1158015610af6573d6000803e3d6000fd5b50503360009081526002602052604081208054869450909250610b1a908490610d57565b909155505060405182815233907f2da466a7b24304f47e87fa2e1e5a81b9831ce54fec19055ce277ca2f39ba42c49060200160405180910390a250610b5e60018055565b50565b610b69610b9c565b6001600160a01b038116610b9357604051631e4fbdf760e01b815260006004820152602401610272565b610b5e81610bf3565b6000546001600160a01b031633146105855760405163118cdaa760e01b8152336004820152602401610272565b600260015403610bec57604051633ee5aeb560e01b815260040160405180910390fd5b6002600155565b600080546001600160a01b038381166001600160a01b0319831681178455604051919092169283917f8be0079c531659141344cd1fd0a4f28419497f9722a3daafe3b4186f6b6457e09190a35050565b80356001600160a01b0381168114610c5a57600080fd5b919050565b60008060408385031215610c7257600080fd5b82359150610c8260208401610c43565b90509250929050565b600060208284031215610c9d57600080fd5b610ca682610c43565b9392505050565b60008060408385031215610cc057600080fd5b610cc983610c43565b946020939093013593505050565b600060208284031215610ce957600080fd5b5035919050565b6020808252601290820152710416d6f756e74206d757374206265203e20360741b604082015260600190565b600060208284031215610d2e57600080fd5b5051919050565b600060208284031215610d4757600080fd5b81518015158114610ca657600080fd5b80820180821115610d7857634e487b7160e01b600052601160045260246000fd5b9291505056fea2646970667358221220e31581a50624558fca1611926583ef13ba9500df4163702ce7b923f9266173bd64736f6c63430008140033",
  "linkReferences": {},
  "deployedLinkReferences": {}
}