{
  "_format": "hh-sol-artifact-1",
  "contractName": "RecyclingRewards",
  "sourceName": "contracts/RecyclingRewards.sol",
  "abi": [
    {
      "inputs": [
        {
          "internalType": "address",
          "name": "_beltToken",
          "type": "address"
        }
      ],
      "stateMutability": "nonpayable",
      "type": "constructor"
    },
    {
      "inputs": [],
      "name": "AccessControlBadConfirmation",
      "type": "error"
    },
    {
      "inputs": [
        {
          "internalType": "address",
          "name": "account",
          "type": "address"
        },
        {
          "internalType": "bytes32",
          "name": "neededRole",
          "type": "bytes32"
        }
      ],
      "name": "AccessControlUnauthorizedAccount",
      "type": "error"
    },
    {
      "inputs": [],
      "name": "ReentrancyGuardReentrantCall",
      "type": "error"
    },
    {
      "anonymous": false,
      "inputs": [
        {
          "indexed": true,
          "internalType": "address",
          "name": "user",
          "type": "address"
        },
        {
          "indexed": false,
          "internalType": "string",
          "name": "reason",
          "type": "string"
        }
      ],
      "name": "FraudDetected",
      "type": "event"
    },
    {
      "anonymous": false,
      "inputs": [
        {
          "indexed": true,
          "internalType": "address",
          "name": "user",
          "type": "address"
        },
        {
          "indexed": true,
          "internalType": "uint256",
          "name": "submissionId",
          "type": "uint256"
        },
        {
          "indexed": false,
          "internalType": "string",
          "name": "reason",
          "type": "string"
        },
        {
          "indexed": false,
          "internalType": "address",
          "name": "markedBy",
          "type": "address"
        }
      ],
      "name": "FraudMarkedByStaff",
      "type": "event"
    },
    {
      "anonymous": false,
      "inputs": [
        {
          "indexed": false,
          "internalType": "address",
          "name": "account",
          "type": "address"
        }
      ],
      "name": "Paused",
      "type": "event"
    },
    {
      "anonymous": false,
      "inputs": [
        {
          "indexed": true,
          "internalType": "string",
          "name": "qrHash",
          "type": "string"
        },
        {
          "indexed": true,
          "internalType": "address",
          "name": "user",
          "type": "address"
        },
        {
          "indexed": false,
          "internalType": "uint256",
          "name": "rewardAmount",
          "type": "uint256"
        },
        {
          "indexed": false,
          "internalType": "uint256",
          "name": "timestamp",
          "type": "uint256"
        }
      ],
      "name": "QRCodeClaimed",
      "type": "event"
    },
    {
      "anonymous": false,
      "inputs": [
        {
          "indexed": true,
          "internalType": "address",
          "name": "user",
          "type": "address"
        }
      ],
      "name": "RecyclingBanApplied",
      "type": "event"
    },
    {
      "anonymous": false,
      "inputs": [
        {
          "indexed": true,
          "internalType": "address",
          "name": "user",
          "type": "address"
        }
      ],
      "name": "RecyclingBanRemoved",
      "type": "event"
    },
    {
      "anonymous": false,
      "inputs": [
        {
          "indexed": true,
          "internalType": "address",
          "name": "user",
          "type": "address"
        },
        {
          "indexed": false,
          "internalType": "address",
          "name": "confirmedBy",
          "type": "address"
        },
        {
          "indexed": false,
          "internalType": "string",
          "name": "reason",
          "type": "string"
        }
      ],
      "name": "RecyclingFraudConfirmed",
      "type": "event"
    },
    {
      "anonymous": false,
      "inputs": [
        {
          "indexed": true,
          "internalType": "bytes32",
          "name": "role",
          "type": "bytes32"
        },
        {
          "indexed": true,
          "internalType": "bytes32",
          "name": "previousAdminRole",
          "type": "bytes32"
        },
        {
          "indexed": true,
          "internalType": "bytes32",
          "name": "newAdminRole",
          "type": "bytes32"
        }
      ],
      "name": "RoleAdminChanged",
      "type": "event"
    },
    {
      "anonymous": false,
      "inputs": [
        {
          "indexed": true,
          "internalType": "bytes32",
          "name": "role",
          "type": "bytes32"
        },
        {
          "indexed": true,
          "internalType": "address",
          "name": "account",
          "type": "address"
        },
        {
          "indexed": true,
          "internalType": "address",
          "name": "sender",
          "type": "address"
        }
      ],
      "name": "RoleGranted",
      "type": "event"
    },
    {
      "anonymous": false,
      "inputs": [
        {
          "indexed": true,
          "internalType": "bytes32",
          "name": "role",
          "type": "bytes32"
        },
        {
          "indexed": true,
          "internalType": "address",
          "name": "account",
          "type": "address"
        },
        {
          "indexed": true,
          "internalType": "address",
          "name": "sender",
          "type": "address"
        }
      ],
      "name": "RoleRevoked",
      "type": "event"
    },
    {
      "anonymous": false,
      "inputs": [
        {
          "indexed": true,
          "internalType": "uint256",
          "name": "submissionId",
          "type": "uint256"
        },
        {
          "indexed": true,
          "internalType": "address",
          "name": "user",
          "type": "address"
        },
        {
          "indexed": false,
          "internalType": "uint256",
          "name": "rewardAmount",
          "type": "uint256"
        },
        {
          "indexed": false,
          "internalType": "address",
          "name": "approvedBy",
          "type": "address"
        }
      ],
      "name": "SubmissionApproved",
      "type": "event"
    },
    {
      "anonymous": false,
      "inputs": [
        {
          "indexed": true,
          "internalType": "uint256",
          "name": "submissionId",
          "type": "uint256"
        },
        {
          "indexed": true,
          "internalType": "address",
          "name": "user",
          "type": "address"
        },
        {
          "indexed": false,
          "internalType": "enum RecyclingRewards.WasteType",
          "name": "wasteType",
          "type": "uint8"
        },
        {
          "indexed": false,
          "internalType": "uint256",
          "name": "amount",
          "type": "uint256"
        },
        {
          "indexed": false,
          "internalType": "string",
          "name": "subcategory",
          "type": "string"
        },
        {
          "indexed": false,
          "internalType": "string",
          "name": "qrHash",
          "type": "string"
        }
      ],
      "name": "SubmissionCreated",
      "type": "event"
    },
    {
      "anonymous": false,
      "inputs": [
        {
          "indexed": true,
          "internalType": "uint256",
          "name": "submissionId",
          "type": "uint256"
        },
        {
          "indexed": true,
          "internalType": "address",
          "name": "user",
          "type": "address"
        },
        {
          "indexed": false,
          "internalType": "string",
          "name": "reason",
          "type": "string"
        },
        {
          "indexed": false,
          "internalType": "address",
          "name": "rejectedBy",
          "type": "address"
        }
      ],
      "name": "SubmissionRejected",
      "type": "event"
    },
    {
      "anonymous": false,
      "inputs": [
        {
          "indexed": true,
          "internalType": "address",
          "name": "user",
          "type": "address"
        },
        {
          "indexed": false,
          "internalType": "uint256",
          "name": "amount",
          "type": "uint256"
        },
        {
          "indexed": true,
          "internalType": "uint256",
          "name": "submissionId",
          "type": "uint256"
        },
        {
          "indexed": false,
          "internalType": "string",
          "name": "qrHash",
          "type": "string"
        }
      ],
      "name": "TokenMinted",
      "type": "event"
    },
    {
      "anonymous": false,
      "inputs": [
        {
          "indexed": false,
          "internalType": "enum RecyclingRewards.WasteType",
          "name": "wasteType",
          "type": "uint8"
        },
        {
          "indexed": false,
          "internalType": "uint256",
          "name": "newRate",
          "type": "uint256"
        }
      ],
      "name": "TokenRateUpdated",
      "type": "event"
    },
    {
      "anonymous": false,
      "inputs": [
        {
          "indexed": false,
          "internalType": "address",
          "name": "account",
          "type": "address"
        }
      ],
      "name": "Unpaused",
      "type": "event"
    },
    {
      "anonymous": false,
      "inputs": [
        {
          "indexed": true,
          "internalType": "address",
          "name": "user",
          "type": "address"
        },
        {
          "indexed": false,
          "internalType": "string",
          "name": "reason",
          "type": "string"
        }
      ],
      "name": "UserBlacklisted",
      "type": "event"
    },
    {
      "inputs": [],
      "name": "DEFAULT_ADMIN_ROLE",
      "outputs": [
        {
          "internalType": "bytes32",
          "name": "",
          "type": "bytes32"
        }
      ],
      "stateMutability": "view",
      "type": "function"
    },
    {
      "inputs": [],
      "name": "MAX_AMOUNT_PER_SUBMISSION",
      "outputs": [
        {
          "internalType": "uint256",
          "name": "",
          "type": "uint256"
        }
      ],
      "stateMutability": "view",
      "type": "function"
    },
    {
      "inputs": [],
      "name": "MUNICIPALITY_STAFF_ROLE",
      "outputs": [
        {
          "internalType": "bytes32",
          "name": "",
          "type": "bytes32"
        }
      ],
      "stateMutability": "view",
      "type": "function"
    },
    {
      "inputs": [],
      "name": "RECYCLING_INSPECTOR_ROLE",
      "outputs": [
        {
          "internalType": "bytes32",
          "name": "",
          "type": "bytes32"
        }
      ],
      "stateMutability": "view",
      "type": "function"
    },
    {
      "inputs": [],
      "name": "SERVICE_OPERATOR_ROLE",
      "outputs": [
        {
          "internalType": "bytes32",
          "name": "",
          "type": "bytes32"
        }
      ],
      "stateMutability": "view",
      "type": "function"
    },
    {
      "inputs": [
        {
          "internalType": "uint256",
          "name": "submissionId",
          "type": "uint256"
        }
      ],
      "name": "approveSubmission",
      "outputs": [],
      "stateMutability": "nonpayable",
      "type": "function"
    },
    {
      "inputs": [
        {
          "internalType": "uint256[]",
          "name": "submissionIds",
          "type": "uint256[]"
        }
      ],
      "name": "batchApprove",
      "outputs": [],
      "stateMutability": "nonpayable",
      "type": "function"
    },
    {
      "inputs": [],
      "name": "beltToken",
      "outputs": [
        {
          "internalType": "contract BELTToken",
          "name": "",
          "type": "address"
        }
      ],
      "stateMutability": "view",
      "type": "function"
    },
    {
      "inputs": [
        {
          "internalType": "enum RecyclingRewards.WasteType",
          "name": "wasteType",
          "type": "uint8"
        },
        {
          "internalType": "uint256",
          "name": "amount",
          "type": "uint256"
        }
      ],
      "name": "calculateReward",
      "outputs": [
        {
          "internalType": "uint256",
          "name": "",
          "type": "uint256"
        }
      ],
      "stateMutability": "view",
      "type": "function"
    },
    {
      "inputs": [
        {
          "internalType": "address",
          "name": "user",
          "type": "address"
        }
      ],
      "name": "canReceiveReward",
      "outputs": [
        {
          "internalType": "bool",
          "name": "",
          "type": "bool"
        }
      ],
      "stateMutability": "view",
      "type": "function"
    },
    {
      "inputs": [
        {
          "internalType": "address",
          "name": "user",
          "type": "address"
        },
        {
          "internalType": "string",
          "name": "reason",
          "type": "string"
        }
      ],
      "name": "confirmRecyclingFraud",
      "outputs": [],
      "stateMutability": "nonpayable",
      "type": "function"
    },
    {
      "inputs": [],
      "name": "getAllTokenRates",
      "outputs": [
        {
          "internalType": "uint256",
          "name": "plastic",
          "type": "uint256"
        },
        {
          "internalType": "uint256",
          "name": "glass",
          "type": "uint256"
        },
        {
          "internalType": "uint256",
          "name": "metal",
          "type": "uint256"
        },
        {
          "internalType": "uint256",
          "name": "paper",
          "type": "uint256"
        },
        {
          "internalType": "uint256",
          "name": "electronic",
          "type": "uint256"
        }
      ],
      "stateMutability": "view",
      "type": "function"
    },
    {
      "inputs": [
        {
          "internalType": "uint256",
          "name": "startId",
          "type": "uint256"
        },
        {
          "internalType": "uint256",
          "name": "count",
          "type": "uint256"
        }
      ],
      "name": "getPendingSubmissions",
      "outputs": [
        {
          "internalType": "uint256[]",
          "name": "ids",
          "type": "uint256[]"
        },
        {
          "internalType": "address[]",
          "name": "users",
          "type": "address[]"
        },
        {
          "internalType": "uint256[]",
          "name": "amounts",
          "type": "uint256[]"
        }
      ],
      "stateMutability": "view",
      "type": "function"
    },
    {
      "inputs": [
        {
          "internalType": "bytes32",
          "name": "role",
          "type": "bytes32"
        }
      ],
      "name": "getRoleAdmin",
      "outputs": [
        {
          "internalType": "bytes32",
          "name": "",
          "type": "bytes32"
        }
      ],
      "stateMutability": "view",
      "type": "function"
    },
    {
      "inputs": [
        {
          "internalType": "address",
          "name": "user",
          "type": "address"
        }
      ],
      "name": "getUserSubmissions",
      "outputs": [
        {
          "internalType": "uint256[]",
          "name": "",
          "type": "uint256[]"
        }
      ],
      "stateMutability": "view",
      "type": "function"
    },
    {
      "inputs": [
        {
          "internalType": "bytes32",
          "name": "role",
          "type": "bytes32"
        },
        {
          "internalType": "address",
          "name": "account",
          "type": "address"
        }
      ],
      "name": "grantRole",
      "outputs": [],
      "stateMutability": "nonpayable",
      "type": "function"
    },
    {
      "inputs": [
        {
          "internalType": "bytes32",
          "name": "role",
          "type": "bytes32"
        },
        {
          "internalType": "address",
          "name": "account",
          "type": "address"
        }
      ],
      "name": "hasRole",
      "outputs": [
        {
          "internalType": "bool",
          "name": "",
          "type": "bool"
        }
      ],
      "stateMutability": "view",
      "type": "function"
    },
    {
      "inputs": [
        {
          "internalType": "address",
          "name": "",
          "type": "address"
        }
      ],
      "name": "isBlacklisted",
      "outputs": [
        {
          "internalType": "bool",
          "name": "",
          "type": "bool"
        }
      ],
      "stateMutability": "view",
      "type": "function"
    },
    {
      "inputs": [
        {
          "internalType": "string",
          "name": "qrHash",
          "type": "string"
        }
      ],
      "name": "isQrHashUsed",
      "outputs": [
        {
          "internalType": "bool",
          "name": "",
          "type": "bool"
        }
      ],
      "stateMutability": "view",
      "type": "function"
    },
    {
      "inputs": [],
      "name": "pause",
      "outputs": [],
      "stateMutability": "nonpayable",
      "type": "function"
    },
    {
      "inputs": [],
      "name": "paused",
      "outputs": [
        {
          "internalType": "bool",
          "name": "",
          "type": "bool"
        }
      ],
      "stateMutability": "view",
      "type": "function"
    },
    {
      "inputs": [
        {
          "internalType": "uint256",
          "name": "",
          "type": "uint256"
        }
      ],
      "name": "pendingSubmissions",
      "outputs": [
        {
          "internalType": "address",
          "name": "user",
          "type": "address"
        },
        {
          "internalType": "enum RecyclingRewards.WasteType",
          "name": "wasteType",
          "type": "uint8"
        },
        {
          "internalType": "uint256",
          "name": "amount",
          "type": "uint256"
        },
        {
          "internalType": "string",
          "name": "qrHash",
          "type": "string"
        },
        {
          "internalType": "string",
          "name": "subcategory",
          "type": "string"
        },
        {
          "internalType": "uint256",
          "name": "submittedAt",
          "type": "uint256"
        },
        {
          "internalType": "bool",
          "name": "approved",
          "type": "bool"
        },
        {
          "internalType": "bool",
          "name": "rejected",
          "type": "bool"
        },
        {
          "internalType": "address",
          "name": "approvedBy",
          "type": "address"
        },
        {
          "internalType": "string",
          "name": "rejectionReason",
          "type": "string"
        }
      ],
      "stateMutability": "view",
      "type": "function"
    },
    {
      "inputs": [
        {
          "internalType": "address",
          "name": "",
          "type": "address"
        }
      ],
      "name": "recyclingBanned",
      "outputs": [
        {
          "internalType": "bool",
          "name": "",
          "type": "bool"
        }
      ],
      "stateMutability": "view",
      "type": "function"
    },
    {
      "inputs": [
        {
          "internalType": "uint256",
          "name": "submissionId",
          "type": "uint256"
        },
        {
          "internalType": "string",
          "name": "reason",
          "type": "string"
        },
        {
          "internalType": "bool",
          "name": "isFraud",
          "type": "bool"
        }
      ],
      "name": "rejectSubmission",
      "outputs": [],
      "stateMutability": "nonpayable",
      "type": "function"
    },
    {
      "inputs": [
        {
          "internalType": "address",
          "name": "user",
          "type": "address"
        }
      ],
      "name": "removeFromBlacklist",
      "outputs": [],
      "stateMutability": "nonpayable",
      "type": "function"
    },
    {
      "inputs": [
        {
          "internalType": "address",
          "name": "user",
          "type": "address"
        }
      ],
      "name": "removeRecyclingBan",
      "outputs": [],
      "stateMutability": "nonpayable",
      "type": "function"
    },
    {
      "inputs": [
        {
          "internalType": "bytes32",
          "name": "role",
          "type": "bytes32"
        },
        {
          "internalType": "address",
          "name": "callerConfirmation",
          "type": "address"
        }
      ],
      "name": "renounceRole",
      "outputs": [],
      "stateMutability": "nonpayable",
      "type": "function"
    },
    {
      "inputs": [
        {
          "internalType": "bytes32",
          "name": "role",
          "type": "bytes32"
        },
        {
          "internalType": "address",
          "name": "account",
          "type": "address"
        }
      ],
      "name": "revokeRole",
      "outputs": [],
      "stateMutability": "nonpayable",
      "type": "function"
    },
    {
      "inputs": [
        {
          "internalType": "address",
          "name": "user",
          "type": "address"
        },
        {
          "internalType": "enum RecyclingRewards.WasteType",
          "name": "wasteType",
          "type": "uint8"
        },
        {
          "internalType": "uint256",
          "name": "baseAmount",
          "type": "uint256"
        },
        {
          "internalType": "string",
          "name": "qrHash",
          "type": "string"
        }
      ],
      "name": "rewardRecycling",
      "outputs": [],
      "stateMutability": "nonpayable",
      "type": "function"
    },
    {
      "inputs": [
        {
          "internalType": "enum RecyclingRewards.WasteType",
          "name": "wasteType",
          "type": "uint8"
        },
        {
          "internalType": "uint256",
          "name": "newRate",
          "type": "uint256"
        }
      ],
      "name": "setTokenRate",
      "outputs": [],
      "stateMutability": "nonpayable",
      "type": "function"
    },
    {
      "inputs": [],
      "name": "submissionCounter",
      "outputs": [
        {
          "internalType": "uint256",
          "name": "",
          "type": "uint256"
        }
      ],
      "stateMutability": "view",
      "type": "function"
    },
    {
      "inputs": [
        {
          "internalType": "enum RecyclingRewards.WasteType",
          "name": "wasteType",
          "type": "uint8"
        },
        {
          "internalType": "uint256",
          "name": "amount",
          "type": "uint256"
        },
        {
          "internalType": "string",
          "name": "qrHash",
          "type": "string"
        },
        {
          "internalType": "string",
          "name": "subcategory",
          "type": "string"
        }
      ],
      "name": "submitRecycling",
      "outputs": [
        {
          "internalType": "uint256",
          "name": "submissionId",
          "type": "uint256"
        }
      ],
      "stateMutability": "nonpayable",
      "type": "function"
    },
    {
      "inputs": [
        {
          "internalType": "bytes4",
          "name": "interfaceId",
          "type": "bytes4"
        }
      ],
      "name": "supportsInterface",
      "outputs": [
        {
          "internalType": "bool",
          "name": "",
          "type": "bool"
        }
      ],
      "stateMutability": "view",
      "type": "function"
    },
    {
      "inputs": [
        {
          "internalType": "enum RecyclingRewards.WasteType",
          "name": "",
          "type": "uint8"
        }
      ],
      "name": "tokenRatePerUnit",
      "outputs": [
        {
          "internalType": "uint256",
          "name": "",
          "type": "uint256"
        }
      ],
      "stateMutability": "view",
      "type": "function"
    },
    {
      "inputs": [],
      "name": "unpause",
      "outputs": [],
      "stateMutability": "nonpayable",
      "type": "function"
    },
    {
      "inputs": [
        {
          "internalType": "string",
          "name": "",
          "type": "string"
        }
      ],
      "name": "usedQrHashes",
      "outputs": [
        {
          "internalType": "bool",
          "name": "",
          "type": "bool"
        }
      ],
      "stateMutability": "view",
      "type": "function"
    },
    {
      "inputs": [
        {
          "internalType": "address",
          "name": "",
          "type": "address"
        }
      ],
      "name": "userFraudCount",
      "outputs": [
        {
          "internalType": "uint256",
          "name": "",
          "type": "uint256"
        }
      ],
      "stateMutability": "view",
      "type": "function"
    },
    {
      "inputs": [
        {
          "internalType": "address",
          "name": "",
          "type": "address"
        },
        {
          "internalType": "uint256",
          "name": "",
          "type": "uint256"
        }
      ],
      "name": "userSubmissions",
      "outputs": [
        {
          "internalType": "uint256",
          "name": "",
          "type": "uint256"
        }
      ],
      "stateMutability": "view",
      "type": "function"
    },
    {
      "inputs": [
        {
          "internalType": "enum RecyclingRewards.WasteType",
          "name": "",
          "type": "uint8"
        }
      ],
      "name": "wasteTypeLabels",
      "outputs": [
        {
          "internalType": "string",
          "name": "",
          "type": "string"
        }
      ],
      "stateMutability": "view",
      "type": "function"
    }
  ],
  "bytecode": "0x60806040523480156200001157600080fd5b506040516200378e3803806200378e833981016040819052620000349162000443565b600180556001600160a01b038116620000935760405162461bcd60e51b815260206004820152601a60248201527f496e76616c69642042454c5420746f6b656e2061646472657373000000000000604482015260640160405180910390fd5b600280546001600160a01b0319166001600160a01b038316179055620000bb60003362000394565b50620000e87f5ae1495371c1d3417bb96af4bda6276cbe3e941ab955255135d8b6758753173f3362000394565b50620001157fe4d5c884bb2bbd1524f427e37125e868c9ebc036abd474003aed332d9eeee7c43362000394565b5060647f3617319a054d772f909f7c479a2cebe5066e836a939412e32403c99029b92eff5560787fa15bc60c955c405d20d9149c709e2460f1c2d9a497496a7f46004d1772c3054c5560967fc3a24b0501bd2c13a7e57f2db4369ec4c223447539fc0724a9d55ac4a06ebd4d5560507fcbc4e5fb02c3d1de23a9f1e014b4d2ee5aeaea9505df5e855c9210bf472495af5560fa7f83ec6a1f0257b830b5e016457c9cf1435391bf56cc98f369a58a54fe9377246555604080518082019091526007815266506c617374696b60c81b60208281019190915260008052600490527f17ef568e3e12ab5b9c7254a8d58478811de00f9e6eb34345acd53bf8fd09d3ec906200022290826200051a565b5060408051808201909152600381526243616d60e81b6020808301919091526001600052600490527fabd6e7cb50984ff9c2f3e18a2660c3353dadf4e3291deeb275dae2cd1e44fe05906200027890826200051a565b5060408051808201909152600581526413595d185b60da1b6020808301919091526002600052600490527f91da3fd0782e51c6b3986e9e672fd566868e71f3dbc2d6c2cd6fbb3e361af2a790620002d090826200051a565b5060408051808201909152600c81526b25b0b3b4ba17a5b0b93a37b760a11b6020808301919091526003600052600490527f2e174c10e159ea99b867ce3205125c24a42d128804e4070ed6fcc8cc98166aa0906200032f90826200051a565b5060408051808201909152600a815269456c656b74726f6e696b60b01b6020808301919091526004600081905290527f1a1e6821cde7d0159c0d293177871e09677b4e42307c7db3ba94f8648a5a050f906200038c90826200051a565b5050620005e6565b6000828152602081815260408083206001600160a01b038516845290915281205460ff1662000439576000838152602081815260408083206001600160a01b03861684529091529020805460ff19166001179055620003f03390565b6001600160a01b0316826001600160a01b0316847f2f8788117e7eff1d82e926ec794901d17c78024a50270940304540a733656f0d60405160405180910390a45060016200043d565b5060005b92915050565b6000602082840312156200045657600080fd5b81516001600160a01b03811681146200046e57600080fd5b9392505050565b634e487b7160e01b600052604160045260246000fd5b600181811c90821680620004a057607f821691505b602082108103620004c157634e487b7160e01b600052602260045260246000fd5b50919050565b601f8211156200051557600081815260208120601f850160051c81016020861015620004f05750805b601f850160051c820191505b818110156200051157828155600101620004fc565b5050505b505050565b81516001600160401b0381111562000536576200053662000475565b6200054e816200054784546200048b565b84620004c7565b602080601f8311600181146200058657600084156200056d5750858301515b600019600386901b1c1916600185901b17855562000511565b600085815260208120601f198616915b82811015620005b75788860151825594840194600190910190840162000596565b5085821015620005d65787850151600019600388901b60f8161c191681555b5050505050600190811b01905550565b61319880620005f66000396000f3fe608060405234801561001057600080fd5b506004361061023c5760003560e01c806380fd0fb31161013b578063ae288df6116100b8578063f177c7041161007c578063f177c70414610586578063f5b38f18146105a6578063f6d664ee146105d4578063f79448ee146105dd578063fe575a87146105f057600080fd5b8063ae288df614610506578063aeca54ca14610528578063c03ae00d1461053b578063c157982b1461055e578063d547741f1461057357600080fd5b80639b7e0180116100ff5780639b7e0180146104795780639d57b4e11461048c578063a217fddf146104b3578063a3b3f814146104bb578063a7b8614d146104e657600080fd5b806380fd0fb314610425578063834396e3146104385780638456cb591461044b578063917639c91461045357806391d148541461046657600080fd5b80633f4ba83a116101c95780635c975abb1161018d5780635c975abb146103d657806360f123d2146103e357806371475929146103f657806375ea48681461040957806376c23ff11461041c57600080fd5b80633f4ba83a1461037557806345a8aaf01461037d57806350e2b4ec146103905780635311cd8c146103b0578063537df3b6146103c357600080fd5b806323bfff281161021057806323bfff28146102d3578063248a9ca3146103035780632e0a1faf146103265780632f2ff15d1461034d57806336568abe1461036257600080fd5b806211e1bb1461024157806301ffc9a71461027457806316b4ecaf146102975780631b5e26bc146102c0575b600080fd5b61026161024f366004612597565b60036020526000908152604090205481565b6040519081526020015b60405180910390f35b6102876102823660046125b9565b610613565b604051901515815260200161026b565b6102aa6102a53660046125e3565b61064a565b60405161026b9a9998979695949392919061267a565b6102876102ce366004612724565b610853565b6102db610897565b604080519586526020860194909452928401919091526060830152608082015260a00161026b565b6102616103113660046125e3565b60009081526020819052604090206001015490565b6102617fcf03e9fe7c97151bf673e7c941d77e363e37d974e2ea833a75e6ee5779eaecff81565b61036061035b36600461273f565b6109c8565b005b61036061037036600461273f565b6109f3565b610360610a2b565b61036061038b366004612724565b610abb565b61026161039e366004612724565b600a6020526000908152604090205481565b6103606103be36600461276b565b610b90565b6103606103d1366004612724565b610d9f565b600c546102879060ff1681565b6102616103f13660046127df565b610dff565b6103606104043660046127df565b610e5a565b610360610417366004612851565b610f62565b61026160085481565b6103606104333660046125e3565b611109565b6103606104463660046128a3565b61146e565b6103606117e1565b610360610461366004612906565b61186d565b61028761047436600461273f565b611b99565b610261610487366004612974565b611bc2565b6102617f5ae1495371c1d3417bb96af4bda6276cbe3e941ab955255135d8b6758753173f81565b610261600081565b6002546104ce906001600160a01b031681565b6040516001600160a01b03909116815260200161026b565b6104f96104f4366004612724565b611bf3565b60405161026b91906129cb565b6105196105143660046129de565b611c5f565b60405161026b93929190612a00565b610287610536366004612a73565b611edc565b610287610549366004612724565b600d6020526000908152604090205460ff1681565b61026160008051602061314383398151915281565b61036061058136600461273f565b611f0b565b610599610594366004612597565b611f30565b60405161026b9190612ab4565b6102876105b4366004612add565b805160208183018101805160068252928201919093012091525460ff1681565b6102616103e881565b6102616105eb366004612b8d565b611fca565b6102876105fe366004612724565b600b6020526000908152604090205460ff1681565b60006001600160e01b03198216637965db0b60e01b148061064457506301ffc9a760e01b6001600160e01b03198316145b92915050565b6007602052600090815260409020805460018201546002830180546001600160a01b03841694600160a01b90940460ff1693919061068790612c16565b80601f01602080910402602001604051908101604052809291908181526020018280546106b390612c16565b80156107005780601f106106d557610100808354040283529160200191610700565b820191906000526020600020905b8154815290600101906020018083116106e357829003601f168201915b50505050509080600301805461071590612c16565b80601f016020809104026020016040519081016040528092919081815260200182805461074190612c16565b801561078e5780601f106107635761010080835404028352916020019161078e565b820191906000526020600020905b81548152906001019060200180831161077157829003601f168201915b50505050600483015460058401546006850180549495929460ff808416955061010084041693620100009093046001600160a01b03169291906107d090612c16565b80601f01602080910402602001604051908101604052809291908181526020018280546107fc90612c16565b80156108495780601f1061081e57610100808354040283529160200191610849565b820191906000526020600020905b81548152906001019060200180831161082c57829003601f168201915b505050505090508a565b6001600160a01b0381166000908152600d602052604081205460ff161580156106445750506001600160a01b03166000908152600b602052604090205460ff161590565b600080805260036020527f3617319a054d772f909f7c479a2cebe5066e836a939412e32403c99029b92eff5481908190819081906108d790600a90612c66565b600160005260036020527fa15bc60c955c405d20d9149c709e2460f1c2d9a497496a7f46004d1772c3054c5461090f90600a90612c66565b600260005260036020527fc3a24b0501bd2c13a7e57f2db4369ec4c223447539fc0724a9d55ac4a06ebd4d5461094790600a90612c66565b600360008190526020527fcbc4e5fb02c3d1de23a9f1e014b4d2ee5aeaea9505df5e855c9210bf472495af5461097f90600a90612c66565b600460005260036020527f83ec6a1f0257b830b5e016457c9cf1435391bf56cc98f369a58a54fe93772465546109b790600a90612c66565b945094509450945094509091929394565b6000828152602081905260409020600101546109e381612416565b6109ed8383612423565b50505050565b6001600160a01b0381163314610a1c5760405163334bd91960e11b815260040160405180910390fd5b610a2682826124b5565b505050565b6000610a3681612416565b600c5460ff16610a7a5760405162461bcd60e51b815260206004820152600a602482015269139bdd081c185d5cd95960b21b60448201526064015b60405180910390fd5b600c805460ff191690556040513381527f5db9ee0a495bf2e6ff9c91a7834c1ba4fdd244a5e8aa4e537bd38aeae4b073aa906020015b60405180910390a150565b6000610ac681612416565b6001600160a01b038216610aec5760405162461bcd60e51b8152600401610a7190612c88565b6001600160a01b0382166000908152600d602052604090205460ff16610b465760405162461bcd60e51b815260206004820152600f60248201526e155cd95c881b9bdd0818985b9b9959608a1b6044820152606401610a71565b6001600160a01b0382166000818152600d6020526040808220805460ff19169055517f9f7f8dfd1a1cef3bf5ced0308e901b093afb2285d313064886d6d08e83e4a8c29190a25050565b600080516020613143833981519152610ba881612416565b600c5460ff1615610bcb5760405162461bcd60e51b8152600401610a7190612cb1565b60005b828110156109ed57600060076000868685818110610bee57610bee612cdd565b6020908102929092013583525081019190915260400160002080549091506001600160a01b031615801590610c285750600581015460ff16155b8015610c3e57506005810154610100900460ff16155b8015610c64575080546001600160a01b03166000908152600b602052604090205460ff16155b15610d8c5760058101805462010000330261ff01600160b01b0319909116176001908117909155815490820154600091610ca991600160a01b90910460ff1690610dff565b90508015610d8a5760025482546040516340c10f1960e01b81526001600160a01b039182166004820152602481018490529116906340c10f1990604401600060405180830381600087803b158015610d0057600080fd5b505af1158015610d14573d6000803e3d6000fd5b505083546001600160a01b031691508790508685818110610d3757610d37612cdd565b905060200201357f989ed510a12a877d0fb932932b4f06f5a90a9587d293e6e6bc4d1f19b54f84a58333604051610d819291909182526001600160a01b0316602082015260400190565b60405180910390a35b505b5080610d9781612cf3565b915050610bce565b6000610daa81612416565b816001600160a01b038116610dd15760405162461bcd60e51b8152600401610a7190612c88565b50506001600160a01b03166000908152600b60209081526040808320805460ff19169055600a909152812055565b60008060036000856004811115610e1857610e186125fc565b6004811115610e2957610e296125fc565b8152602001908152602001600020549050600a8184610e489190612d0c565b610e529190612c66565b949350505050565b6000610e6581612416565b60008211610ea85760405162461bcd60e51b815260206004820152601060248201526f052617465206d757374206265203e20360841b6044820152606401610a71565b6103e8821115610eea5760405162461bcd60e51b815260206004820152600d60248201526c0a4c2e8ca40e8dede40d0d2ced609b1b6044820152606401610a71565b8160036000856004811115610f0157610f016125fc565b6004811115610f1257610f126125fc565b8152602001908152602001600020819055507fd49eeb2bb7ce75a1d10911a2ebbac57cb2c591142508a2e0871beca6905fb3268383604051610f55929190612d23565b60405180910390a1505050565b6001600160a01b038316610f885760405162461bcd60e51b8152600401610a7190612c88565b610fb27fcf03e9fe7c97151bf673e7c941d77e363e37d974e2ea833a75e6ee5779eaecff33611b99565b80610fd05750610fd060008051602061314383398151915233611b99565b80610fe15750610fe1600033611b99565b6110385760405162461bcd60e51b815260206004820152602260248201527f4e6f7420617574686f72697a65642072656379636c696e6720696e737065637460448201526137b960f11b6064820152608401610a71565b6001600160a01b0383166000908152600d602090815260408083208054600160ff199182168117909255600b845282852080549091169091179055600a909152812080549161108683612cf3565b9190505550826001600160a01b03167f448d99358cabf362aa65b4c45af359f520196df72a442f79e06bb7161732f7953384846040516110c893929190612d67565b60405180910390a26040516001600160a01b038416907fd87f6265aaf5bed664573a79e9c6bc215e724a22837d251d89663c3e4acd399290600090a2505050565b60008051602061314383398151915261112181612416565b600c5460ff16156111445760405162461bcd60e51b8152600401610a7190612cb1565b61114c612520565b600082815260076020526040902080546001600160a01b03166111a85760405162461bcd60e51b815260206004820152601460248201527314dd589b5a5cdcda5bdb881b9bdd08199bdd5b9960621b6044820152606401610a71565b600581015460ff16156111f05760405162461bcd60e51b815260206004820152601060248201526f105b1c9958591e48185c1c1c9bdd995960821b6044820152606401610a71565b6005810154610100900460ff161561123d5760405162461bcd60e51b815260206004820152601060248201526f105b1c9958591e481c995a9958dd195960821b6044820152606401610a71565b80546001600160a01b03166000908152600b602052604090205460ff16156112775760405162461bcd60e51b8152600401610a7190612d95565b60058101805462010000330261ff01600160b01b03199091161760019081179091558154908201546000916112b791600160a01b90910460ff1690610dff565b9050600081116113055760405162461bcd60e51b815260206004820152601960248201527814995dd85c990818d85b18dd5b185d1a5bdb8819985a5b1959603a1b6044820152606401610a71565b60025482546040516340c10f1960e01b81526001600160a01b039182166004820152602481018490529116906340c10f1990604401600060405180830381600087803b15801561135457600080fd5b505af1158015611368573d6000803e3d6000fd5b505083546040518793506001600160a01b0390911691507ffd8041fd7e4d7047a13bde415402e7278ad32792f9bdf46102a274181893cc94906113b19085906002880190612dc2565b60405180910390a381546040516001600160a01b03909116906113d8906002850190612e55565b60408051918290038220848352426020840152917fca8221fd57b92ded94b5ac9b430f10e7f4066fe51a0c7d1cb709f70a5bd8cce6910160405180910390a38154604080518381523360208201526001600160a01b039092169186917f989ed510a12a877d0fb932932b4f06f5a90a9587d293e6e6bc4d1f19b54f84a5910160405180910390a3505061146a60018055565b5050565b60008051602061314383398151915261148681612416565b600c5460ff16156114a95760405162461bcd60e51b8152600401610a7190612cb1565b600085815260076020526040902080546001600160a01b03166115055760405162461bcd60e51b815260206004820152601460248201527314dd589b5a5cdcda5bdb881b9bdd08199bdd5b9960621b6044820152606401610a71565b600581015460ff161561154d5760405162461bcd60e51b815260206004820152601060248201526f105b1c9958591e48185c1c1c9bdd995960821b6044820152606401610a71565b6005810154610100900460ff161561159a5760405162461bcd60e51b815260206004820152601060248201526f105b1c9958591e481c995a9958dd195960821b6044820152606401610a71565b836115d95760405162461bcd60e51b815260206004820152600f60248201526e1499585cdbdb881c995c5d5a5c9959608a1b6044820152606401610a71565b60058101805461ff001916610100179055600681016115f9858783612f19565b5060058101805462010000600160b01b031916336201000002179055821561178d5780546001600160a01b03166000908152600a6020526040812080549161164083612cf3565b9091555050805460405187916001600160a01b0316907fadb7f38bc6710c9fc4031b1d2532575da920f0e2f9f1001f72013bbdbe626aec9061168790899089903390612fd9565b60405180910390a380546040516001600160a01b03909116907facc320e589f1ccaf53039099aba3ccbc80f1109cc11a4d4cface4432c87e0cf4906116cf9088908890613005565b60405180910390a280546001600160a01b03166000908152600a602052604090205460031161178d5780546001600160a01b039081166000908152600b602052604090819020805460ff19166001179055825490519116907fcc1cf21b75158e751a071cc4770b92cde8bb2bc34f9187eedd0592b874a55669906117849060208082526018908201527f33206672617564207761726e696e672065786365656465640000000000000000604082015260600190565b60405180910390a25b80546040516001600160a01b039091169087907f1e18cc3f3b1c0b7738d516eaf717787c2bcd73151c4e08043d831d38eeef2403906117d190899089903390612fd9565b60405180910390a3505050505050565b60006117ec81612416565b600c5460ff16156118305760405162461bcd60e51b815260206004820152600e60248201526d105b1c9958591e481c185d5cd95960921b6044820152606401610a71565b600c805460ff191660011790556040513381527f62e78cea01bee320cd4e420270b5ea74000d11b0c9f74754ebdbfc544b05a25890602001610ab0565b60008051602061314383398151915261188581612416565b600c5460ff16156118a85760405162461bcd60e51b8152600401610a7190612cb1565b856001600160a01b0381166118cf5760405162461bcd60e51b8152600401610a7190612c88565b6001600160a01b0387166000908152600b6020526040902054879060ff161561190a5760405162461bcd60e51b8152600401610a7190612d95565b611912612520565b600086116119575760405162461bcd60e51b81526020600482015260126024820152710416d6f756e74206d757374206265203e20360741b6044820152606401610a71565b6103e88611156119a25760405162461bcd60e51b8152602060048201526016602482015275416d6f756e742065786365656473206d6178696d756d60501b6044820152606401610a71565b836119e25760405162461bcd60e51b815260206004820152601060248201526f1454881a185cda081c995c5d5a5c995960821b6044820152606401610a71565b600685856040516119f4929190613019565b9081526040519081900360200190205460ff1615611a4b5760405162461bcd60e51b81526020600482015260146024820152731454881a185cda08185b1c9958591e481d5cd95960621b6044820152606401610a71565b600160068686604051611a5f929190613019565b908152604051908190036020019020805491151560ff199092169190911790556000611a8b8888610dff565b905060008111611ad95760405162461bcd60e51b815260206004820152601960248201527814995dd85c990818d85b18dd5b185d1a5bdb8819985a5b1959603a1b6044820152606401610a71565b6002546040516340c10f1960e01b81526001600160a01b038b8116600483015260248201849052909116906340c10f1990604401600060405180830381600087803b158015611b2757600080fd5b505af1158015611b3b573d6000803e3d6000fd5b5050604080518481523360208201526001600160a01b038d169350600092507f989ed510a12a877d0fb932932b4f06f5a90a9587d293e6e6bc4d1f19b54f84a5910160405180910390a350611b8f60018055565b5050505050505050565b6000918252602082815260408084206001600160a01b0393909316845291905290205460ff1690565b60096020528160005260406000208181548110611bde57600080fd5b90600052602060002001600091509150505481565b6001600160a01b038116600090815260096020908152604091829020805483518184028101840190945280845260609392830182828015611c5357602002820191906000526020600020905b815481526020019060010190808311611c3f575b50505050509050919050565b606080806000611c6f8587613029565b9050600854811115611c8c57600854611c89906001613029565b90505b6000865b82811015611cf65760008181526007602052604090206005015460ff16158015611cd15750600081815260076020526040902060050154610100900460ff16155b15611ce45781611ce081612cf3565b9250505b80611cee81612cf3565b915050611c90565b50806001600160401b03811115611d0f57611d0f612ac7565b604051908082528060200260200182016040528015611d38578160200160208202803683370190505b509450806001600160401b03811115611d5357611d53612ac7565b604051908082528060200260200182016040528015611d7c578160200160208202803683370190505b509350806001600160401b03811115611d9757611d97612ac7565b604051908082528060200260200182016040528015611dc0578160200160208202803683370190505b5092506000875b8381108015611dd557508282105b15611ed15760008181526007602052604090206005015460ff16158015611e135750600081815260076020526040902060050154610100900460ff16155b15611ebf5780878381518110611e2b57611e2b612cdd565b60209081029190910181019190915260008281526007909152604090205486516001600160a01b0390911690879084908110611e6957611e69612cdd565b6001600160a01b039092166020928302919091018201526000828152600790915260409020600101548551869084908110611ea657611ea6612cdd565b602090810291909101015281611ebb81612cf3565b9250505b80611ec981612cf3565b915050611dc7565b505050509250925092565b600060068383604051611ef0929190613019565b9081526040519081900360200190205460ff16905092915050565b600082815260208190526040902060010154611f2681612416565b6109ed83836124b5565b60046020526000908152604090208054611f4990612c16565b80601f0160208091040260200160405190810160405280929190818152602001828054611f7590612c16565b8015611fc25780601f10611f9757610100808354040283529160200191611fc2565b820191906000526020600020905b815481529060010190602001808311611fa557829003601f168201915b505050505081565b600c5460009060ff1615611ff05760405162461bcd60e51b8152600401610a7190612cb1565b336000818152600b602052604090205460ff16156120205760405162461bcd60e51b8152600401610a7190612d95565b612028612520565b6000871161206d5760405162461bcd60e51b81526020600482015260126024820152710416d6f756e74206d757374206265203e20360741b6044820152606401610a71565b6103e88711156120b85760405162461bcd60e51b8152602060048201526016602482015275416d6f756e742065786365656473206d6178696d756d60501b6044820152606401610a71565b846120f85760405162461bcd60e51b815260206004820152601060248201526f1454881a185cda081c995c5d5a5c995960821b6044820152606401610a71565b6006868660405161210a929190613019565b9081526040519081900360200190205460ff16156121615760405162461bcd60e51b81526020600482015260146024820152731454881a185cda08185b1c9958591e481d5cd95960621b6044820152606401610a71565b6008805490600061217183612cf3565b91905055506008549150604051806101400160405280336001600160a01b031681526020018960048111156121a8576121a86125fc565b815260200188815260200187878080601f016020809104026020016040519081016040528093929190818152602001838380828437600092019190915250505090825250604080516020601f8801819004810282018101909252868152918101919087908790819084018382808284376000920182905250938552505042602080850191909152604080850184905260608501849052608085018490528051808301825284815260a0909501949094528683526007815292909120835181546001600160a01b031981166001600160a01b03909216918217835593850151919391925083916001600160a81b03191617600160a01b8360048111156122af576122af6125fc565b021790555060408201516001820155606082015160028201906122d2908261303c565b50608082015160038201906122e7908261303c565b5060a0820151600482015560c082015160058201805460e08501516101008087015161ffff1990931694151561ff001916949094179015159093029290921762010000600160b01b031916620100006001600160a01b03909316929092029190911790556101208201516006820190612360908261303c565b5050336000908152600960209081526040808320805460018181018355918552929093209091018590555190915060069061239e9089908990613019565b908152604051908190036020018120805492151560ff1990931692909217909155339083907f41f0cc1b87b3e7c77303e2719943faf26251066f8eace2189de670b8f0c32b20906123fa908c908c908a908a908e908e906130fb565b60405180910390a361240b60018055565b509695505050505050565b612420813361254a565b50565b600061242f8383611b99565b6124ad576000838152602081815260408083206001600160a01b03861684529091529020805460ff191660011790556124653390565b6001600160a01b0316826001600160a01b0316847f2f8788117e7eff1d82e926ec794901d17c78024a50270940304540a733656f0d60405160405180910390a4506001610644565b506000610644565b60006124c18383611b99565b156124ad576000838152602081815260408083206001600160a01b0386168085529252808320805460ff1916905551339286917ff6391f5c32d9c69d2a47ea670b442974b53935d1edc7fd64eb21e047a839171b9190a4506001610644565b60026001540361254357604051633ee5aeb560e01b815260040160405180910390fd5b6002600155565b6125548282611b99565b61146a5760405163e2517d3f60e01b81526001600160a01b038216600482015260248101839052604401610a71565b80356005811061259257600080fd5b919050565b6000602082840312156125a957600080fd5b6125b282612583565b9392505050565b6000602082840312156125cb57600080fd5b81356001600160e01b0319811681146125b257600080fd5b6000602082840312156125f557600080fd5b5035919050565b634e487b7160e01b600052602160045260246000fd5b6005811061263057634e487b7160e01b600052602160045260246000fd5b9052565b6000815180845260005b8181101561265a5760208185018101518683018201520161263e565b506000602082860101526020601f19601f83011685010191505092915050565b6001600160a01b038b811682526000906101409061269b602085018e612612565b8b60408501528160608501526126b38285018c612634565b915083820360808501526126c7828b612634565b91508860a085015287151560c085015286151560e0850152808616610100850152508281036101208401526126fc8185612634565b9d9c50505050505050505050505050565b80356001600160a01b038116811461259257600080fd5b60006020828403121561273657600080fd5b6125b28261270d565b6000806040838503121561275257600080fd5b823591506127626020840161270d565b90509250929050565b6000806020838503121561277e57600080fd5b82356001600160401b038082111561279557600080fd5b818501915085601f8301126127a957600080fd5b8135818111156127b857600080fd5b8660208260051b85010111156127cd57600080fd5b60209290920196919550909350505050565b600080604083850312156127f257600080fd5b6127fb83612583565b946020939093013593505050565b60008083601f84011261281b57600080fd5b5081356001600160401b0381111561283257600080fd5b60208301915083602082850101111561284a57600080fd5b9250929050565b60008060006040848603121561286657600080fd5b61286f8461270d565b925060208401356001600160401b0381111561288a57600080fd5b61289686828701612809565b9497909650939450505050565b600080600080606085870312156128b957600080fd5b8435935060208501356001600160401b038111156128d657600080fd5b6128e287828801612809565b909450925050604085013580151581146128fb57600080fd5b939692955090935050565b60008060008060006080868803121561291e57600080fd5b6129278661270d565b945061293560208701612583565b93506040860135925060608601356001600160401b0381111561295757600080fd5b61296388828901612809565b969995985093965092949392505050565b6000806040838503121561298757600080fd5b6127fb8361270d565b600081518084526020808501945080840160005b838110156129c0578151875295820195908201906001016129a4565b509495945050505050565b6020815260006125b26020830184612990565b600080604083850312156129f157600080fd5b50508035926020909101359150565b606081526000612a136060830186612990565b82810360208481019190915285518083528682019282019060005b81811015612a535784516001600160a01b031683529383019391830191600101612a2e565b50508481036040860152612a678187612990565b98975050505050505050565b60008060208385031215612a8657600080fd5b82356001600160401b03811115612a9c57600080fd5b612aa885828601612809565b90969095509350505050565b6020815260006125b26020830184612634565b634e487b7160e01b600052604160045260246000fd5b600060208284031215612aef57600080fd5b81356001600160401b0380821115612b0657600080fd5b818401915084601f830112612b1a57600080fd5b813581811115612b2c57612b2c612ac7565b604051601f8201601f19908116603f01168101908382118183101715612b5457612b54612ac7565b81604052828152876020848701011115612b6d57600080fd5b826020860160208301376000928101602001929092525095945050505050565b60008060008060008060808789031215612ba657600080fd5b612baf87612583565b95506020870135945060408701356001600160401b0380821115612bd257600080fd5b612bde8a838b01612809565b90965094506060890135915080821115612bf757600080fd5b50612c0489828a01612809565b979a9699509497509295939492505050565b600181811c90821680612c2a57607f821691505b602082108103612c4a57634e487b7160e01b600052602260045260246000fd5b50919050565b634e487b7160e01b600052601160045260246000fd5b600082612c8357634e487b7160e01b600052601260045260246000fd5b500490565b6020808252600f908201526e496e76616c6964206164647265737360881b604082015260600190565b60208082526012908201527110dbdb9d1c9858dd081a5cc81c185d5cd95960721b604082015260600190565b634e487b7160e01b600052603260045260246000fd5b600060018201612d0557612d05612c50565b5060010190565b808202811582820484141761064457610644612c50565b60408101612d318285612612565b8260208301529392505050565b81835281816020850137506000828201602090810191909152601f909101601f19169091010190565b6001600160a01b0384168152604060208201819052600090612d8c9083018486612d3e565b95945050505050565b602080825260139082015272155cd95c881a5cc8189b1858dadb1a5cdd1959606a1b604082015260600190565b8281526000602060408184015260008454612ddc81612c16565b8060408701526060600180841660008114612dfe5760018114612e1857612e46565b60ff1985168984015283151560051b890183019550612e46565b896000528660002060005b85811015612e3e5781548b8201860152908301908801612e23565b8a0184019650505b50939998505050505050505050565b6000808354612e6381612c16565b60018281168015612e7b5760018114612e9057612ebf565b60ff1984168752821515830287019450612ebf565b8760005260208060002060005b85811015612eb65781548a820152908401908201612e9d565b50505082870194505b50929695505050505050565b601f821115610a2657600081815260208120601f850160051c81016020861015612ef25750805b601f850160051c820191505b81811015612f1157828155600101612efe565b505050505050565b6001600160401b03831115612f3057612f30612ac7565b612f4483612f3e8354612c16565b83612ecb565b6000601f841160018114612f785760008515612f605750838201355b600019600387901b1c1916600186901b178355612fd2565b600083815260209020601f19861690835b82811015612fa95786850135825560209485019460019092019101612f89565b5086821015612fc65760001960f88860031b161c19848701351681555b505060018560011b0183555b5050505050565b604081526000612fed604083018587612d3e565b905060018060a01b0383166020830152949350505050565b602081526000610e52602083018486612d3e565b8183823760009101908152919050565b8082018082111561064457610644612c50565b81516001600160401b0381111561305557613055612ac7565b613069816130638454612c16565b84612ecb565b602080601f83116001811461309e57600084156130865750858301515b600019600386901b1c1916600185901b178555612f11565b600085815260208120601f198616915b828110156130cd578886015182559484019460019091019084016130ae565b50858210156130eb5787850151600019600388901b60f8161c191681555b5050505050600190811b01905550565b6131058188612612565b856020820152608060408201526000613122608083018688612d3e565b8281036060840152613135818587612d3e565b999850505050505050505056fee4d5c884bb2bbd1524f427e37125e868c9ebc036abd474003aed332d9eeee7c4a264697066735822122017227b60f5d18bdf2d97dfd5d7fe5bcb806f828223f7f11d5a1d676f70c370d664736f6c63430008140033",
  "linkReferences": {},
  "deployedLinkReferences": {}
}