{
  "_format": "hh-sol-artifact-1",
  "contractName": "RecyclingRewards",
  "sourceName": "contracts/RecyclingRewards.sol",
  "abi": [
    {
      "inputs": [
        {
          "internalType": "address",
          "name": "_beltToken",
          "type": "address"
        }
      ],
      "stateMutability": "nonpayable",
      "type": "constructor"
    },
    {
      "inputs": [
        {
          "internalType": "address",
          "name": "owner",
          "type": "address"
        }
      ],
      "name": "OwnableInvalidOwner",
      "type": "error"
    },
    {
      "inputs": [
        {
          "internalType": "address",
          "name": "account",
          "type": "address"
        }
      ],
      "name": "OwnableUnauthorizedAccount",
      "type": "error"
    },
    {
      "anonymous": false,
      "inputs": [
        {
          "indexed": true,
          "internalType": "address",
          "name": "previousOwner",
          "type": "address"
        },
        {
          "indexed": true,
          "internalType": "address",
          "name": "newOwner",
          "type": "address"
        }
      ],
      "name": "OwnershipTransferred",
      "type": "event"
    },
    {
      "anonymous": false,
      "inputs": [
        {
          "indexed": true,
          "internalType": "address",
          "name": "user",
          "type": "address"
        },
        {
          "indexed": false,
          "internalType": "enum RecyclingRewards.MaterialType",
          "name": "material",
          "type": "uint8"
        },
        {
          "indexed": false,
          "internalType": "uint256",
          "name": "amount",
          "type": "uint256"
        },
        {
          "indexed": false,
          "internalType": "string",
          "name": "qrHash",
          "type": "string"
        }
      ],
      "name": "RewardGranted",
      "type": "event"
    },
    {
      "inputs": [],
      "name": "beltToken",
      "outputs": [
        {
          "internalType": "contract BELTToken",
          "name": "",
          "type": "address"
        }
      ],
      "stateMutability": "view",
      "type": "function"
    },
    {
      "inputs": [],
      "name": "owner",
      "outputs": [
        {
          "internalType": "address",
          "name": "",
          "type": "address"
        }
      ],
      "stateMutability": "view",
      "type": "function"
    },
    {
      "inputs": [],
      "name": "renounceOwnership",
      "outputs": [],
      "stateMutability": "nonpayable",
      "type": "function"
    },
    {
      "inputs": [
        {
          "internalType": "enum RecyclingRewards.MaterialType",
          "name": "",
          "type": "uint8"
        }
      ],
      "name": "rewardMultiplier",
      "outputs": [
        {
          "internalType": "uint256",
          "name": "",
          "type": "uint256"
        }
      ],
      "stateMutability": "view",
      "type": "function"
    },
    {
      "inputs": [
        {
          "internalType": "address",
          "name": "user",
          "type": "address"
        },
        {
          "internalType": "enum RecyclingRewards.MaterialType",
          "name": "material",
          "type": "uint8"
        },
        {
          "internalType": "uint256",
          "name": "baseAmount",
          "type": "uint256"
        },
        {
          "internalType": "string",
          "name": "qrHash",
          "type": "string"
        }
      ],
      "name": "rewardRecycling",
      "outputs": [],
      "stateMutability": "nonpayable",
      "type": "function"
    },
    {
      "inputs": [
        {
          "internalType": "address",
          "name": "newOwner",
          "type": "address"
        }
      ],
      "name": "transferOwnership",
      "outputs": [],
      "stateMutability": "nonpayable",
      "type": "function"
    }
  ],
  "bytecode": "0x608060405234801561001057600080fd5b5060405161066738038061066783398101604081905261002f9161014a565b338061005557604051631e4fbdf760e01b81526000600482015260240160405180910390fd5b61005e816100fa565b50600180546001600160a01b0319166001600160a01b039290921691909117905560026020819052600a7fac33ff75c19e70fe83507db0d683fd3465c996598dc972688b7ace676c89077b55600f7fe90b7bceb6e7df5418fb78d8ee546e97c83a08bbccc01a0644d599ccd2a7c2e05560005260147f679795a0195a1b76cdebb7c51d74e058aee92919b8c3389af86ef24535e8a28c5561017a565b600080546001600160a01b038381166001600160a01b0319831681178455604051919092169283917f8be0079c531659141344cd1fd0a4f28419497f9722a3daafe3b4186f6b6457e09190a35050565b60006020828403121561015c57600080fd5b81516001600160a01b038116811461017357600080fd5b9392505050565b6104de806101896000396000f3fe608060405234801561001057600080fd5b50600436106100625760003560e01c806359594e0114610067578063715018a61461009a5780638da5cb5b146100a4578063917639c9146100c9578063a3b3f814146100dc578063f2fde38b146100ef575b600080fd5b6100876100753660046102f8565b60026020526000908152604090205481565b6040519081526020015b60405180910390f35b6100a2610102565b005b6000546001600160a01b03165b6040516001600160a01b039091168152602001610091565b6100a26100d7366004610331565b610116565b6001546100b1906001600160a01b031681565b6100a26100fd3660046103cc565b610224565b61010a610267565b6101146000610294565b565b61011e610267565b6000600a60026000876002811115610138576101386103e7565b6002811115610149576101496103e7565b8152602001908152602001600020548561016391906103fd565b61016d9190610428565b6001546040516340c10f1960e01b81526001600160a01b038981166004830152602482018490529293509116906340c10f1990604401600060405180830381600087803b1580156101bd57600080fd5b505af11580156101d1573d6000803e3d6000fd5b50505050856001600160a01b03167f222a69fecada35c2a6fdd5b5570219b199c3db3cfdc756719868223207f8f5f586838686604051610214949392919061044a565b60405180910390a2505050505050565b61022c610267565b6001600160a01b03811661025b57604051631e4fbdf760e01b8152600060048201526024015b60405180910390fd5b61026481610294565b50565b6000546001600160a01b031633146101145760405163118cdaa760e01b8152336004820152602401610252565b600080546001600160a01b038381166001600160a01b0319831681178455604051919092169283917f8be0079c531659141344cd1fd0a4f28419497f9722a3daafe3b4186f6b6457e09190a35050565b8035600381106102f357600080fd5b919050565b60006020828403121561030a57600080fd5b610313826102e4565b9392505050565b80356001600160a01b03811681146102f357600080fd5b60008060008060006080868803121561034957600080fd5b6103528661031a565b9450610360602087016102e4565b935060408601359250606086013567ffffffffffffffff8082111561038457600080fd5b818801915088601f83011261039857600080fd5b8135818111156103a757600080fd5b8960208285010111156103b957600080fd5b9699959850939650602001949392505050565b6000602082840312156103de57600080fd5b6103138261031a565b634e487b7160e01b600052602160045260246000fd5b808202811582820484141761042257634e487b7160e01b600052601160045260246000fd5b92915050565b60008261044557634e487b7160e01b600052601260045260246000fd5b500490565b60006003861061046a57634e487b7160e01b600052602160045260246000fd5b85825284602083015260606040830152826060830152828460808401376000608084840101526080601f19601f85011683010190509594505050505056fea26469706673582212204fba496fc36ae79231b6235a9383bbb44a34ba65797ae53722252638aad2fa1f64736f6c63430008140033",
  "linkReferences": {},
  "deployedLinkReferences": {}
}