{
  "_format": "hh-sol-artifact-1",
  "contractName": "RecyclingRewards",
  "sourceName": "contracts/RecyclingRewards.sol",
  "abi": [
    {
      "inputs": [
        {
          "internalType": "address",
          "name": "_beltToken",
          "type": "address"
        }
      ],
      "stateMutability": "nonpayable",
      "type": "constructor"
    },
    {
      "inputs": [],
      "name": "AccessControlBadConfirmation",
      "type": "error"
    },
    {
      "inputs": [
        {
          "internalType": "address",
          "name": "account",
          "type": "address"
        },
        {
          "internalType": "bytes32",
          "name": "neededRole",
          "type": "bytes32"
        }
      ],
      "name": "AccessControlUnauthorizedAccount",
      "type": "error"
    },
    {
      "anonymous": false,
      "inputs": [
        {
          "indexed": false,
          "internalType": "address",
          "name": "account",
          "type": "address"
        }
      ],
      "name": "Paused",
      "type": "event"
    },
    {
      "anonymous": false,
      "inputs": [
        {
          "indexed": true,
          "internalType": "address",
          "name": "user",
          "type": "address"
        },
        {
          "indexed": false,
          "internalType": "enum RecyclingRewards.MaterialType",
          "name": "material",
          "type": "uint8"
        },
        {
          "indexed": false,
          "internalType": "uint256",
          "name": "amount",
          "type": "uint256"
        },
        {
          "indexed": false,
          "internalType": "string",
          "name": "qrHash",
          "type": "string"
        }
      ],
      "name": "RewardGranted",
      "type": "event"
    },
    {
      "anonymous": false,
      "inputs": [
        {
          "indexed": false,
          "internalType": "enum RecyclingRewards.MaterialType",
          "name": "material",
          "type": "uint8"
        },
        {
          "indexed": false,
          "internalType": "uint256",
          "name": "newMultiplier",
          "type": "uint256"
        }
      ],
      "name": "RewardMultiplierUpdated",
      "type": "event"
    },
    {
      "anonymous": false,
      "inputs": [
        {
          "indexed": true,
          "internalType": "bytes32",
          "name": "role",
          "type": "bytes32"
        },
        {
          "indexed": true,
          "internalType": "bytes32",
          "name": "previousAdminRole",
          "type": "bytes32"
        },
        {
          "indexed": true,
          "internalType": "bytes32",
          "name": "newAdminRole",
          "type": "bytes32"
        }
      ],
      "name": "RoleAdminChanged",
      "type": "event"
    },
    {
      "anonymous": false,
      "inputs": [
        {
          "indexed": true,
          "internalType": "bytes32",
          "name": "role",
          "type": "bytes32"
        },
        {
          "indexed": true,
          "internalType": "address",
          "name": "account",
          "type": "address"
        },
        {
          "indexed": true,
          "internalType": "address",
          "name": "sender",
          "type": "address"
        }
      ],
      "name": "RoleGranted",
      "type": "event"
    },
    {
      "anonymous": false,
      "inputs": [
        {
          "indexed": true,
          "internalType": "bytes32",
          "name": "role",
          "type": "bytes32"
        },
        {
          "indexed": true,
          "internalType": "address",
          "name": "account",
          "type": "address"
        },
        {
          "indexed": true,
          "internalType": "address",
          "name": "sender",
          "type": "address"
        }
      ],
      "name": "RoleRevoked",
      "type": "event"
    },
    {
      "anonymous": false,
      "inputs": [
        {
          "indexed": false,
          "internalType": "address",
          "name": "account",
          "type": "address"
        }
      ],
      "name": "Unpaused",
      "type": "event"
    },
    {
      "inputs": [],
      "name": "DEFAULT_ADMIN_ROLE",
      "outputs": [
        {
          "internalType": "bytes32",
          "name": "",
          "type": "bytes32"
        }
      ],
      "stateMutability": "view",
      "type": "function"
    },
    {
      "inputs": [],
      "name": "MAX_BASE_AMOUNT",
      "outputs": [
        {
          "internalType": "uint256",
          "name": "",
          "type": "uint256"
        }
      ],
      "stateMutability": "view",
      "type": "function"
    },
    {
      "inputs": [],
      "name": "SERVICE_OPERATOR_ROLE",
      "outputs": [
        {
          "internalType": "bytes32",
          "name": "",
          "type": "bytes32"
        }
      ],
      "stateMutability": "view",
      "type": "function"
    },
    {
      "inputs": [],
      "name": "beltToken",
      "outputs": [
        {
          "internalType": "contract BELTToken",
          "name": "",
          "type": "address"
        }
      ],
      "stateMutability": "view",
      "type": "function"
    },
    {
      "inputs": [
        {
          "internalType": "bytes32",
          "name": "role",
          "type": "bytes32"
        }
      ],
      "name": "getRoleAdmin",
      "outputs": [
        {
          "internalType": "bytes32",
          "name": "",
          "type": "bytes32"
        }
      ],
      "stateMutability": "view",
      "type": "function"
    },
    {
      "inputs": [
        {
          "internalType": "bytes32",
          "name": "role",
          "type": "bytes32"
        },
        {
          "internalType": "address",
          "name": "account",
          "type": "address"
        }
      ],
      "name": "grantRole",
      "outputs": [],
      "stateMutability": "nonpayable",
      "type": "function"
    },
    {
      "inputs": [
        {
          "internalType": "bytes32",
          "name": "role",
          "type": "bytes32"
        },
        {
          "internalType": "address",
          "name": "account",
          "type": "address"
        }
      ],
      "name": "hasRole",
      "outputs": [
        {
          "internalType": "bool",
          "name": "",
          "type": "bool"
        }
      ],
      "stateMutability": "view",
      "type": "function"
    },
    {
      "inputs": [
        {
          "internalType": "string",
          "name": "qrHash",
          "type": "string"
        }
      ],
      "name": "isQrHashUsed",
      "outputs": [
        {
          "internalType": "bool",
          "name": "",
          "type": "bool"
        }
      ],
      "stateMutability": "view",
      "type": "function"
    },
    {
      "inputs": [],
      "name": "pause",
      "outputs": [],
      "stateMutability": "nonpayable",
      "type": "function"
    },
    {
      "inputs": [],
      "name": "paused",
      "outputs": [
        {
          "internalType": "bool",
          "name": "",
          "type": "bool"
        }
      ],
      "stateMutability": "view",
      "type": "function"
    },
    {
      "inputs": [
        {
          "internalType": "bytes32",
          "name": "role",
          "type": "bytes32"
        },
        {
          "internalType": "address",
          "name": "callerConfirmation",
          "type": "address"
        }
      ],
      "name": "renounceRole",
      "outputs": [],
      "stateMutability": "nonpayable",
      "type": "function"
    },
    {
      "inputs": [
        {
          "internalType": "bytes32",
          "name": "role",
          "type": "bytes32"
        },
        {
          "internalType": "address",
          "name": "account",
          "type": "address"
        }
      ],
      "name": "revokeRole",
      "outputs": [],
      "stateMutability": "nonpayable",
      "type": "function"
    },
    {
      "inputs": [
        {
          "internalType": "enum RecyclingRewards.MaterialType",
          "name": "",
          "type": "uint8"
        }
      ],
      "name": "rewardMultiplier",
      "outputs": [
        {
          "internalType": "uint256",
          "name": "",
          "type": "uint256"
        }
      ],
      "stateMutability": "view",
      "type": "function"
    },
    {
      "inputs": [
        {
          "internalType": "address",
          "name": "user",
          "type": "address"
        },
        {
          "internalType": "enum RecyclingRewards.MaterialType",
          "name": "material",
          "type": "uint8"
        },
        {
          "internalType": "uint256",
          "name": "baseAmount",
          "type": "uint256"
        },
        {
          "internalType": "string",
          "name": "qrHash",
          "type": "string"
        }
      ],
      "name": "rewardRecycling",
      "outputs": [],
      "stateMutability": "nonpayable",
      "type": "function"
    },
    {
      "inputs": [
        {
          "internalType": "enum RecyclingRewards.MaterialType",
          "name": "material",
          "type": "uint8"
        },
        {
          "internalType": "uint256",
          "name": "multiplier",
          "type": "uint256"
        }
      ],
      "name": "setRewardMultiplier",
      "outputs": [],
      "stateMutability": "nonpayable",
      "type": "function"
    },
    {
      "inputs": [
        {
          "internalType": "bytes4",
          "name": "interfaceId",
          "type": "bytes4"
        }
      ],
      "name": "supportsInterface",
      "outputs": [
        {
          "internalType": "bool",
          "name": "",
          "type": "bool"
        }
      ],
      "stateMutability": "view",
      "type": "function"
    },
    {
      "inputs": [],
      "name": "unpause",
      "outputs": [],
      "stateMutability": "nonpayable",
      "type": "function"
    },
    {
      "inputs": [
        {
          "internalType": "string",
          "name": "",
          "type": "string"
        }
      ],
      "name": "usedQrHashes",
      "outputs": [
        {
          "internalType": "bool",
          "name": "",
          "type": "bool"
        }
      ],
      "stateMutability": "view",
      "type": "function"
    }
  ],
  "bytecode": "0x608060405234801561001057600080fd5b5060405161119b38038061119b83398101604081905261002f91610203565b6001600160a01b0381166100895760405162461bcd60e51b815260206004820152601a60248201527f496e76616c69642042454c5420746f6b656e2061646472657373000000000000604482015260640160405180910390fd5b600180546001600160a01b0319166001600160a01b0383161790556100af600033610157565b506100da7f5ae1495371c1d3417bb96af4bda6276cbe3e941ab955255135d8b6758753173f33610157565b505060026020819052600a7fac33ff75c19e70fe83507db0d683fd3465c996598dc972688b7ace676c89077b55600f7fe90b7bceb6e7df5418fb78d8ee546e97c83a08bbccc01a0644d599ccd2a7c2e05560005260147f679795a0195a1b76cdebb7c51d74e058aee92919b8c3389af86ef24535e8a28c55610233565b6000828152602081815260408083206001600160a01b038516845290915281205460ff166101f9576000838152602081815260408083206001600160a01b03861684529091529020805460ff191660011790556101b13390565b6001600160a01b0316826001600160a01b0316847f2f8788117e7eff1d82e926ec794901d17c78024a50270940304540a733656f0d60405160405180910390a45060016101fd565b5060005b92915050565b60006020828403121561021557600080fd5b81516001600160a01b038116811461022c57600080fd5b9392505050565b610f59806102426000396000f3fe608060405234801561001057600080fd5b50600436106101165760003560e01c8063917639c9116100a2578063a3b3f81411610071578063a3b3f81414610237578063aeca54ca14610262578063d547741f14610275578063f3f6920614610288578063f5b38f181461029b57600080fd5b8063917639c9146101e257806391d14854146101f55780639d57b4e114610208578063a217fddf1461022f57600080fd5b80633f4ba83a116100e95780633f4ba83a1461019c57806340359dee146101a457806359594e01146101ad5780635c975abb146101cd5780638456cb59146101da57600080fd5b806301ffc9a71461011b578063248a9ca3146101435780632f2ff15d1461017457806336568abe14610189575b600080fd5b61012e610129366004610b8e565b6102c9565b60405190151581526020015b60405180910390f35b610166610151366004610bbf565b60009081526020819052604090206001015490565b60405190815260200161013a565b610187610182366004610bf4565b610300565b005b610187610197366004610bf4565b61032b565b610187610363565b61016661271081565b6101666101bb366004610c2f565b60026020526000908152604090205481565b60045461012e9060ff1681565b6101876103f3565b6101876101f0366004610c93565b61047f565b61012e610203366004610bf4565b6108b7565b6101667f5ae1495371c1d3417bb96af4bda6276cbe3e941ab955255135d8b6758753173f81565b610166600081565b60015461024a906001600160a01b031681565b6040516001600160a01b03909116815260200161013a565b61012e610270366004610d02565b6108e0565b610187610283366004610bf4565b61090f565b610187610296366004610d44565b610934565b61012e6102a9366004610d84565b805160208183018101805160038252928201919093012091525460ff1681565b60006001600160e01b03198216637965db0b60e01b14806102fa57506301ffc9a760e01b6001600160e01b03198316145b92915050565b60008281526020819052604090206001015461031b81610a47565b6103258383610a54565b50505050565b6001600160a01b03811633146103545760405163334bd91960e11b815260040160405180910390fd5b61035e8282610ae6565b505050565b600061036e81610a47565b60045460ff166103b25760405162461bcd60e51b815260206004820152600a602482015269139bdd081c185d5cd95960b21b60448201526064015b60405180910390fd5b6004805460ff191690556040513381527f5db9ee0a495bf2e6ff9c91a7834c1ba4fdd244a5e8aa4e537bd38aeae4b073aa906020015b60405180910390a150565b60006103fe81610a47565b60045460ff16156104425760405162461bcd60e51b815260206004820152600e60248201526d105b1c9958591e481c185d5cd95960921b60448201526064016103a9565b6004805460ff191660011790556040513381527f62e78cea01bee320cd4e420270b5ea74000d11b0c9f74754ebdbfc544b05a258906020016103e8565b7f5ae1495371c1d3417bb96af4bda6276cbe3e941ab955255135d8b6758753173f6104a981610a47565b60045460ff16156104f15760405162461bcd60e51b815260206004820152601260248201527110dbdb9d1c9858dd081a5cc81c185d5cd95960721b60448201526064016103a9565b856001600160a01b03811661053a5760405162461bcd60e51b815260206004820152600f60248201526e496e76616c6964206164647265737360881b60448201526064016103a9565b6000851161058a5760405162461bcd60e51b815260206004820152601760248201527f4261736520616d6f756e74206d757374206265203e203000000000000000000060448201526064016103a9565b6127108511156105dc5760405162461bcd60e51b815260206004820152601b60248201527f4261736520616d6f756e742065786365656473206d6178696d756d000000000060448201526064016103a9565b826106295760405162461bcd60e51b815260206004820152601760248201527f515220686173682063616e6e6f7420626520656d70747900000000000000000060448201526064016103a9565b6003848460405161063b929190610e35565b9081526040519081900360200190205460ff16156106925760405162461bcd60e51b81526020600482015260146024820152731454881a185cda08185b1c9958591e481d5cd95960621b60448201526064016103a9565b60008660028111156106a6576106a6610e45565b14806106c3575060018660028111156106c1576106c1610e45565b145b806106df575060028660028111156106dd576106dd610e45565b145b6107235760405162461bcd60e51b8152602060048201526015602482015274496e76616c6964206d6174657269616c207479706560581b60448201526064016103a9565b6000600a6002600089600281111561073d5761073d610e45565b600281111561074e5761074e610e45565b815260200190815260200160002054876107689190610e5b565b6107729190610e80565b9050600081116107d05760405162461bcd60e51b815260206004820152602360248201527f5265776172642063616c63756c6174696f6e20726573756c74656420696e207a60448201526265726f60e81b60648201526084016103a9565b6001600386866040516107e4929190610e35565b908152604051908190036020018120805492151560ff19909316929092179091556001546340c10f1960e01b82526001600160a01b038a811660048401526024830184905216906340c10f1990604401600060405180830381600087803b15801561084e57600080fd5b505af1158015610862573d6000803e3d6000fd5b50505050876001600160a01b03167f222a69fecada35c2a6fdd5b5570219b199c3db3cfdc756719868223207f8f5f5888388886040516108a59493929190610ec4565b60405180910390a25050505050505050565b6000918252602082815260408084206001600160a01b0393909316845291905290205460ff1690565b6000600383836040516108f4929190610e35565b9081526040519081900360200190205460ff16905092915050565b60008281526020819052604090206001015461092a81610a47565b6103258383610ae6565b600061093f81610a47565b600082116109885760405162461bcd60e51b815260206004820152601660248201527504d756c7469706c696572206d757374206265203e20360541b60448201526064016103a9565b60648211156109cf5760405162461bcd60e51b815260206004820152601360248201527209aead8e8d2e0d8d2cae440e8dede40d0d2ced606b1b60448201526064016103a9565b81600260008560028111156109e6576109e6610e45565b60028111156109f7576109f7610e45565b8152602001908152602001600020819055507fff03084947f11bc80559990f3b6c12bc929379c031cf212ae413388044d4bc128383604051610a3a929190610f08565b60405180910390a1505050565b610a518133610b51565b50565b6000610a6083836108b7565b610ade576000838152602081815260408083206001600160a01b03861684529091529020805460ff19166001179055610a963390565b6001600160a01b0316826001600160a01b0316847f2f8788117e7eff1d82e926ec794901d17c78024a50270940304540a733656f0d60405160405180910390a45060016102fa565b5060006102fa565b6000610af283836108b7565b15610ade576000838152602081815260408083206001600160a01b0386168085529252808320805460ff1916905551339286917ff6391f5c32d9c69d2a47ea670b442974b53935d1edc7fd64eb21e047a839171b9190a45060016102fa565b610b5b82826108b7565b610b8a5760405163e2517d3f60e01b81526001600160a01b0382166004820152602481018390526044016103a9565b5050565b600060208284031215610ba057600080fd5b81356001600160e01b031981168114610bb857600080fd5b9392505050565b600060208284031215610bd157600080fd5b5035919050565b80356001600160a01b0381168114610bef57600080fd5b919050565b60008060408385031215610c0757600080fd5b82359150610c1760208401610bd8565b90509250929050565b803560038110610bef57600080fd5b600060208284031215610c4157600080fd5b610bb882610c20565b60008083601f840112610c5c57600080fd5b50813567ffffffffffffffff811115610c7457600080fd5b602083019150836020828501011115610c8c57600080fd5b9250929050565b600080600080600060808688031215610cab57600080fd5b610cb486610bd8565b9450610cc260208701610c20565b935060408601359250606086013567ffffffffffffffff811115610ce557600080fd5b610cf188828901610c4a565b969995985093965092949392505050565b60008060208385031215610d1557600080fd5b823567ffffffffffffffff811115610d2c57600080fd5b610d3885828601610c4a565b90969095509350505050565b60008060408385031215610d5757600080fd5b610d6083610c20565b946020939093013593505050565b634e487b7160e01b600052604160045260246000fd5b600060208284031215610d9657600080fd5b813567ffffffffffffffff80821115610dae57600080fd5b818401915084601f830112610dc257600080fd5b813581811115610dd457610dd4610d6e565b604051601f8201601f19908116603f01168101908382118183101715610dfc57610dfc610d6e565b81604052828152876020848701011115610e1557600080fd5b826020860160208301376000928101602001929092525095945050505050565b8183823760009101908152919050565b634e487b7160e01b600052602160045260246000fd5b80820281158282048414176102fa57634e487b7160e01b600052601160045260246000fd5b600082610e9d57634e487b7160e01b600052601260045260246000fd5b500490565b60038110610ec057634e487b7160e01b600052602160045260246000fd5b9052565b610ece8186610ea2565b83602082015260606040820152816060820152818360808301376000818301608090810191909152601f909201601f191601019392505050565b60408101610f168285610ea2565b826020830152939250505056fea2646970667358221220025d216967ff02eaee3044e131c1e9c03428a859fb698d34cc6d851b100c7d7d64736f6c63430008140033",
  "linkReferences": {},
  "deployedLinkReferences": {}
}