{
  "_format": "hh-sol-artifact-1",
  "contractName": "BELTToken",
  "sourceName": "contracts/BELTToken.sol",
  "abi": [
    {
      "inputs": [],
      "stateMutability": "nonpayable",
      "type": "constructor"
    },
    {
      "inputs": [],
      "name": "AccessControlBadConfirmation",
      "type": "error"
    },
    {
      "inputs": [
        {
          "internalType": "address",
          "name": "account",
          "type": "address"
        },
        {
          "internalType": "bytes32",
          "name": "neededRole",
          "type": "bytes32"
        }
      ],
      "name": "AccessControlUnauthorizedAccount",
      "type": "error"
    },
    {
      "inputs": [
        {
          "internalType": "address",
          "name": "spender",
          "type": "address"
        },
        {
          "internalType": "uint256",
          "name": "allowance",
          "type": "uint256"
        },
        {
          "internalType": "uint256",
          "name": "needed",
          "type": "uint256"
        }
      ],
      "name": "ERC20InsufficientAllowance",
      "type": "error"
    },
    {
      "inputs": [
        {
          "internalType": "address",
          "name": "sender",
          "type": "address"
        },
        {
          "internalType": "uint256",
          "name": "balance",
          "type": "uint256"
        },
        {
          "internalType": "uint256",
          "name": "needed",
          "type": "uint256"
        }
      ],
      "name": "ERC20InsufficientBalance",
      "type": "error"
    },
    {
      "inputs": [
        {
          "internalType": "address",
          "name": "approver",
          "type": "address"
        }
      ],
      "name": "ERC20InvalidApprover",
      "type": "error"
    },
    {
      "inputs": [
        {
          "internalType": "address",
          "name": "receiver",
          "type": "address"
        }
      ],
      "name": "ERC20InvalidReceiver",
      "type": "error"
    },
    {
      "inputs": [
        {
          "internalType": "address",
          "name": "sender",
          "type": "address"
        }
      ],
      "name": "ERC20InvalidSender",
      "type": "error"
    },
    {
      "inputs": [
        {
          "internalType": "address",
          "name": "spender",
          "type": "address"
        }
      ],
      "name": "ERC20InvalidSpender",
      "type": "error"
    },
    {
      "anonymous": false,
      "inputs": [
        {
          "indexed": true,
          "internalType": "address",
          "name": "owner",
          "type": "address"
        },
        {
          "indexed": true,
          "internalType": "address",
          "name": "spender",
          "type": "address"
        },
        {
          "indexed": false,
          "internalType": "uint256",
          "name": "value",
          "type": "uint256"
        }
      ],
      "name": "Approval",
      "type": "event"
    },
    {
      "anonymous": false,
      "inputs": [
        {
          "indexed": true,
          "internalType": "address",
          "name": "from",
          "type": "address"
        },
        {
          "indexed": false,
          "internalType": "uint256",
          "name": "amount",
          "type": "uint256"
        }
      ],
      "name": "Burned",
      "type": "event"
    },
    {
      "anonymous": false,
      "inputs": [
        {
          "indexed": true,
          "internalType": "address",
          "name": "to",
          "type": "address"
        },
        {
          "indexed": false,
          "internalType": "uint256",
          "name": "amount",
          "type": "uint256"
        }
      ],
      "name": "Minted",
      "type": "event"
    },
    {
      "anonymous": false,
      "inputs": [
        {
          "indexed": false,
          "internalType": "address",
          "name": "account",
          "type": "address"
        }
      ],
      "name": "Paused",
      "type": "event"
    },
    {
      "anonymous": false,
      "inputs": [
        {
          "indexed": true,
          "internalType": "bytes32",
          "name": "role",
          "type": "bytes32"
        },
        {
          "indexed": true,
          "internalType": "bytes32",
          "name": "previousAdminRole",
          "type": "bytes32"
        },
        {
          "indexed": true,
          "internalType": "bytes32",
          "name": "newAdminRole",
          "type": "bytes32"
        }
      ],
      "name": "RoleAdminChanged",
      "type": "event"
    },
    {
      "anonymous": false,
      "inputs": [
        {
          "indexed": true,
          "internalType": "bytes32",
          "name": "role",
          "type": "bytes32"
        },
        {
          "indexed": true,
          "internalType": "address",
          "name": "account",
          "type": "address"
        },
        {
          "indexed": true,
          "internalType": "address",
          "name": "sender",
          "type": "address"
        }
      ],
      "name": "RoleGranted",
      "type": "event"
    },
    {
      "anonymous": false,
      "inputs": [
        {
          "indexed": true,
          "internalType": "bytes32",
          "name": "role",
          "type": "bytes32"
        },
        {
          "indexed": true,
          "internalType": "address",
          "name": "account",
          "type": "address"
        },
        {
          "indexed": true,
          "internalType": "address",
          "name": "sender",
          "type": "address"
        }
      ],
      "name": "RoleRevoked",
      "type": "event"
    },
    {
      "anonymous": false,
      "inputs": [
        {
          "indexed": true,
          "internalType": "address",
          "name": "from",
          "type": "address"
        },
        {
          "indexed": true,
          "internalType": "address",
          "name": "to",
          "type": "address"
        },
        {
          "indexed": false,
          "internalType": "uint256",
          "name": "value",
          "type": "uint256"
        }
      ],
      "name": "Transfer",
      "type": "event"
    },
    {
      "anonymous": false,
      "inputs": [
        {
          "indexed": false,
          "internalType": "address",
          "name": "account",
          "type": "address"
        }
      ],
      "name": "Unpaused",
      "type": "event"
    },
    {
      "inputs": [],
      "name": "DEFAULT_ADMIN_ROLE",
      "outputs": [
        {
          "internalType": "bytes32",
          "name": "",
          "type": "bytes32"
        }
      ],
      "stateMutability": "view",
      "type": "function"
    },
    {
      "inputs": [],
      "name": "MAX_SUPPLY",
      "outputs": [
        {
          "internalType": "uint256",
          "name": "",
          "type": "uint256"
        }
      ],
      "stateMutability": "view",
      "type": "function"
    },
    {
      "inputs": [],
      "name": "MINTER_ROLE",
      "outputs": [
        {
          "internalType": "bytes32",
          "name": "",
          "type": "bytes32"
        }
      ],
      "stateMutability": "view",
      "type": "function"
    },
    {
      "inputs": [],
      "name": "SLASHER_ROLE",
      "outputs": [
        {
          "internalType": "bytes32",
          "name": "",
          "type": "bytes32"
        }
      ],
      "stateMutability": "view",
      "type": "function"
    },
    {
      "inputs": [
        {
          "internalType": "address",
          "name": "owner",
          "type": "address"
        },
        {
          "internalType": "address",
          "name": "spender",
          "type": "address"
        }
      ],
      "name": "allowance",
      "outputs": [
        {
          "internalType": "uint256",
          "name": "",
          "type": "uint256"
        }
      ],
      "stateMutability": "view",
      "type": "function"
    },
    {
      "inputs": [
        {
          "internalType": "address",
          "name": "spender",
          "type": "address"
        },
        {
          "internalType": "uint256",
          "name": "value",
          "type": "uint256"
        }
      ],
      "name": "approve",
      "outputs": [
        {
          "internalType": "bool",
          "name": "",
          "type": "bool"
        }
      ],
      "stateMutability": "nonpayable",
      "type": "function"
    },
    {
      "inputs": [
        {
          "internalType": "address",
          "name": "account",
          "type": "address"
        }
      ],
      "name": "balanceOf",
      "outputs": [
        {
          "internalType": "uint256",
          "name": "",
          "type": "uint256"
        }
      ],
      "stateMutability": "view",
      "type": "function"
    },
    {
      "inputs": [
        {
          "internalType": "uint256",
          "name": "amount",
          "type": "uint256"
        }
      ],
      "name": "burn",
      "outputs": [],
      "stateMutability": "nonpayable",
      "type": "function"
    },
    {
      "inputs": [
        {
          "internalType": "address",
          "name": "account",
          "type": "address"
        },
        {
          "internalType": "uint256",
          "name": "amount",
          "type": "uint256"
        }
      ],
      "name": "burnFrom",
      "outputs": [],
      "stateMutability": "nonpayable",
      "type": "function"
    },
    {
      "inputs": [],
      "name": "decimals",
      "outputs": [
        {
          "internalType": "uint8",
          "name": "",
          "type": "uint8"
        }
      ],
      "stateMutability": "view",
      "type": "function"
    },
    {
      "inputs": [
        {
          "internalType": "bytes32",
          "name": "role",
          "type": "bytes32"
        }
      ],
      "name": "getRoleAdmin",
      "outputs": [
        {
          "internalType": "bytes32",
          "name": "",
          "type": "bytes32"
        }
      ],
      "stateMutability": "view",
      "type": "function"
    },
    {
      "inputs": [
        {
          "internalType": "bytes32",
          "name": "role",
          "type": "bytes32"
        },
        {
          "internalType": "address",
          "name": "account",
          "type": "address"
        }
      ],
      "name": "grantRole",
      "outputs": [],
      "stateMutability": "nonpayable",
      "type": "function"
    },
    {
      "inputs": [
        {
          "internalType": "bytes32",
          "name": "role",
          "type": "bytes32"
        },
        {
          "internalType": "address",
          "name": "account",
          "type": "address"
        }
      ],
      "name": "hasRole",
      "outputs": [
        {
          "internalType": "bool",
          "name": "",
          "type": "bool"
        }
      ],
      "stateMutability": "view",
      "type": "function"
    },
    {
      "inputs": [
        {
          "internalType": "address",
          "name": "to",
          "type": "address"
        },
        {
          "internalType": "uint256",
          "name": "amount",
          "type": "uint256"
        }
      ],
      "name": "mint",
      "outputs": [],
      "stateMutability": "nonpayable",
      "type": "function"
    },
    {
      "inputs": [],
      "name": "name",
      "outputs": [
        {
          "internalType": "string",
          "name": "",
          "type": "string"
        }
      ],
      "stateMutability": "view",
      "type": "function"
    },
    {
      "inputs": [],
      "name": "pause",
      "outputs": [],
      "stateMutability": "nonpayable",
      "type": "function"
    },
    {
      "inputs": [],
      "name": "paused",
      "outputs": [
        {
          "internalType": "bool",
          "name": "",
          "type": "bool"
        }
      ],
      "stateMutability": "view",
      "type": "function"
    },
    {
      "inputs": [
        {
          "internalType": "bytes32",
          "name": "role",
          "type": "bytes32"
        },
        {
          "internalType": "address",
          "name": "callerConfirmation",
          "type": "address"
        }
      ],
      "name": "renounceRole",
      "outputs": [],
      "stateMutability": "nonpayable",
      "type": "function"
    },
    {
      "inputs": [
        {
          "internalType": "bytes32",
          "name": "role",
          "type": "bytes32"
        },
        {
          "internalType": "address",
          "name": "account",
          "type": "address"
        }
      ],
      "name": "revokeRole",
      "outputs": [],
      "stateMutability": "nonpayable",
      "type": "function"
    },
    {
      "inputs": [
        {
          "internalType": "bytes4",
          "name": "interfaceId",
          "type": "bytes4"
        }
      ],
      "name": "supportsInterface",
      "outputs": [
        {
          "internalType": "bool",
          "name": "",
          "type": "bool"
        }
      ],
      "stateMutability": "view",
      "type": "function"
    },
    {
      "inputs": [],
      "name": "symbol",
      "outputs": [
        {
          "internalType": "string",
          "name": "",
          "type": "string"
        }
      ],
      "stateMutability": "view",
      "type": "function"
    },
    {
      "inputs": [],
      "name": "totalSupply",
      "outputs": [
        {
          "internalType": "uint256",
          "name": "",
          "type": "uint256"
        }
      ],
      "stateMutability": "view",
      "type": "function"
    },
    {
      "inputs": [
        {
          "internalType": "address",
          "name": "to",
          "type": "address"
        },
        {
          "internalType": "uint256",
          "name": "amount",
          "type": "uint256"
        }
      ],
      "name": "transfer",
      "outputs": [
        {
          "internalType": "bool",
          "name": "",
          "type": "bool"
        }
      ],
      "stateMutability": "nonpayable",
      "type": "function"
    },
    {
      "inputs": [
        {
          "internalType": "address",
          "name": "from",
          "type": "address"
        },
        {
          "internalType": "address",
          "name": "to",
          "type": "address"
        },
        {
          "internalType": "uint256",
          "name": "amount",
          "type": "uint256"
        }
      ],
      "name": "transferFrom",
      "outputs": [
        {
          "internalType": "bool",
          "name": "",
          "type": "bool"
        }
      ],
      "stateMutability": "nonpayable",
      "type": "function"
    },
    {
      "inputs": [],
      "name": "unpause",
      "outputs": [],
      "stateMutability": "nonpayable",
      "type": "function"
    }
  ],
  "bytecode": "0x60806040523480156200001157600080fd5b50604051806040016040528060128152602001712132b632b234bcb29022b1b7902a37b5b2b760711b815250604051806040016040528060048152602001631091531560e21b81525081600390816200006b919062000245565b5060046200007a828262000245565b506200008c91506000905033620000ed565b50620000b97f9f2df0fed2c77648de5860a4cc508cd0818c85b8b8a1ab4ceeef8d981c8956a633620000ed565b50620000e67f12b42e8a160f6064dc959c6f251e3af0750ad213dbecf573b4710d67d6c28e3933620000ed565b5062000311565b60008281526005602090815260408083206001600160a01b038516845290915281205460ff16620001965760008381526005602090815260408083206001600160a01b03861684529091529020805460ff191660011790556200014d3390565b6001600160a01b0316826001600160a01b0316847f2f8788117e7eff1d82e926ec794901d17c78024a50270940304540a733656f0d60405160405180910390a45060016200019a565b5060005b92915050565b634e487b7160e01b600052604160045260246000fd5b600181811c90821680620001cb57607f821691505b602082108103620001ec57634e487b7160e01b600052602260045260246000fd5b50919050565b601f8211156200024057600081815260208120601f850160051c810160208610156200021b5750805b601f850160051c820191505b818110156200023c5782815560010162000227565b5050505b505050565b81516001600160401b03811115620002615762000261620001a0565b6200027981620002728454620001b6565b84620001f2565b602080601f831160018114620002b15760008415620002985750858301515b600019600386901b1c1916600185901b1785556200023c565b600085815260208120601f198616915b82811015620002e257888601518255948401946001909101908401620002c1565b5085821015620003015787850151600019600388901b60f8161c191681555b5050505050600190811b01905550565b61123880620003216000396000f3fe608060405234801561001057600080fd5b50600436106101735760003560e01c806342966c68116100de57806391d1485411610097578063a9059cbb11610071578063a9059cbb14610323578063d539139314610336578063d547741f1461035d578063dd62ed3e1461037057600080fd5b806391d148541461030057806395d89b4114610313578063a217fddf1461031b57600080fd5b806342966c68146102755780635095af64146102885780635c975abb146102af57806370a08231146102bc57806379cc6790146102e55780638456cb59146102f857600080fd5b80632f2ff15d116101305780632f2ff15d14610210578063313ce5671461022557806332cb6b0c1461023457806336568abe146102475780633f4ba83a1461025a57806340c10f191461026257600080fd5b806301ffc9a71461017857806306fdde03146101a0578063095ea7b3146101b557806318160ddd146101c857806323b872dd146101da578063248a9ca3146101ed575b600080fd5b61018b610186366004610f90565b6103a9565b60405190151581526020015b60405180910390f35b6101a86103e0565b6040516101979190610fc1565b61018b6101c336600461102b565b610472565b6002545b604051908152602001610197565b61018b6101e8366004611055565b61048a565b6101cc6101fb366004611091565b60009081526005602052604090206001015490565b61022361021e3660046110aa565b61051c565b005b60405160128152602001610197565b6101cc6b033b2e3c9fd0803ce800000081565b6102236102553660046110aa565b610547565b61022361057f565b61022361027036600461102b565b61060a565b610223610283366004611091565b610760565b6101cc7f12b42e8a160f6064dc959c6f251e3af0750ad213dbecf573b4710d67d6c28e3981565b60065461018b9060ff1681565b6101cc6102ca3660046110d6565b6001600160a01b031660009081526020819052604090205490565b6102236102f336600461102b565b61083b565b610223610979565b61018b61030e3660046110aa565b610a05565b6101a8610a30565b6101cc600081565b61018b61033136600461102b565b610a3f565b6101cc7f9f2df0fed2c77648de5860a4cc508cd0818c85b8b8a1ab4ceeef8d981c8956a681565b61022361036b3660046110aa565b610a9e565b6101cc61037e3660046110f1565b6001600160a01b03918216600090815260016020908152604080832093909416825291909152205490565b60006001600160e01b03198216637965db0b60e01b14806103da57506301ffc9a760e01b6001600160e01b03198316145b92915050565b6060600380546103ef9061111b565b80601f016020809104026020016040519081016040528092919081815260200182805461041b9061111b565b80156104685780601f1061043d57610100808354040283529160200191610468565b820191906000526020600020905b81548152906001019060200180831161044b57829003601f168201915b5050505050905090565b600033610480818585610ac3565b5060019392505050565b60065460009060ff16156104b95760405162461bcd60e51b81526004016104b090611155565b60405180910390fd5b836001600160a01b0381166104e05760405162461bcd60e51b81526004016104b09061118c565b836001600160a01b0381166105075760405162461bcd60e51b81526004016104b09061118c565b610512868686610ad0565b9695505050505050565b60008281526005602052604090206001015461053781610af4565b6105418383610b01565b50505050565b6001600160a01b03811633146105705760405163334bd91960e11b815260040160405180910390fd5b61057a8282610b95565b505050565b600061058a81610af4565b60065460ff166105c95760405162461bcd60e51b815260206004820152600a602482015269139bdd081c185d5cd95960b21b60448201526064016104b0565b6006805460ff191690556040513381527f5db9ee0a495bf2e6ff9c91a7834c1ba4fdd244a5e8aa4e537bd38aeae4b073aa906020015b60405180910390a150565b7f9f2df0fed2c77648de5860a4cc508cd0818c85b8b8a1ab4ceeef8d981c8956a661063481610af4565b60065460ff16156106575760405162461bcd60e51b81526004016104b090611155565b826001600160a01b03811661067e5760405162461bcd60e51b81526004016104b09061118c565b6000831161069e5760405162461bcd60e51b81526004016104b0906111b5565b6b033b2e3c9fd0803ce8000000836106b560025490565b6106bf91906111e1565b111561070d5760405162461bcd60e51b815260206004820152601f60248201527f4d696e74696e6720776f756c6420657863656564206d617820737570706c790060448201526064016104b0565b6107178484610c02565b836001600160a01b03167f30385c845b448a36257a6a1716e6ad2e1bc2cbe333cde1e69fe849ad6511adfe8460405161075291815260200190565b60405180910390a250505050565b60065460ff16156107835760405162461bcd60e51b81526004016104b090611155565b600081116107a35760405162461bcd60e51b81526004016104b0906111b5565b336000908152602081905260409020548111156107f95760405162461bcd60e51b8152602060048201526014602482015273496e73756666696369656e742062616c616e636560601b60448201526064016104b0565b6108033382610c3c565b60405181815233907f696de425f79f4a40bc6d2122ca50507f0efbeabbff86a84871b7196ab8ea8df79060200160405180910390a250565b7f12b42e8a160f6064dc959c6f251e3af0750ad213dbecf573b4710d67d6c28e3961086581610af4565b60065460ff16156108885760405162461bcd60e51b81526004016104b090611155565b826001600160a01b0381166108af5760405162461bcd60e51b81526004016104b09061118c565b600083116108cf5760405162461bcd60e51b81526004016104b0906111b5565b826108ef856001600160a01b031660009081526020819052604090205490565b10156109345760405162461bcd60e51b8152602060048201526014602482015273496e73756666696369656e742062616c616e636560601b60448201526064016104b0565b61093e8484610c3c565b836001600160a01b03167f696de425f79f4a40bc6d2122ca50507f0efbeabbff86a84871b7196ab8ea8df78460405161075291815260200190565b600061098481610af4565b60065460ff16156109c85760405162461bcd60e51b815260206004820152600e60248201526d105b1c9958591e481c185d5cd95960921b60448201526064016104b0565b6006805460ff191660011790556040513381527f62e78cea01bee320cd4e420270b5ea74000d11b0c9f74754ebdbfc544b05a258906020016105ff565b60009182526005602090815260408084206001600160a01b0393909316845291905290205460ff1690565b6060600480546103ef9061111b565b60065460009060ff1615610a655760405162461bcd60e51b81526004016104b090611155565b826001600160a01b038116610a8c5760405162461bcd60e51b81526004016104b09061118c565b610a968484610c72565b949350505050565b600082815260056020526040902060010154610ab981610af4565b6105418383610b95565b61057a8383836001610c80565b600033610ade858285610d55565b610ae9858585610dce565b506001949350505050565b610afe8133610e2d565b50565b6000610b0d8383610a05565b610b8d5760008381526005602090815260408083206001600160a01b03861684529091529020805460ff19166001179055610b453390565b6001600160a01b0316826001600160a01b0316847f2f8788117e7eff1d82e926ec794901d17c78024a50270940304540a733656f0d60405160405180910390a45060016103da565b5060006103da565b6000610ba18383610a05565b15610b8d5760008381526005602090815260408083206001600160a01b0386168085529252808320805460ff1916905551339286917ff6391f5c32d9c69d2a47ea670b442974b53935d1edc7fd64eb21e047a839171b9190a45060016103da565b6001600160a01b038216610c2c5760405163ec442f0560e01b8152600060048201526024016104b0565b610c3860008383610e66565b5050565b6001600160a01b038216610c6657604051634b637e8f60e11b8152600060048201526024016104b0565b610c3882600083610e66565b600033610480818585610dce565b6001600160a01b038416610caa5760405163e602df0560e01b8152600060048201526024016104b0565b6001600160a01b038316610cd457604051634a1406b160e11b8152600060048201526024016104b0565b6001600160a01b038085166000908152600160209081526040808320938716835292905220829055801561054157826001600160a01b0316846001600160a01b03167f8c5be1e5ebec7d5bd14f71427d1e84f3dd0314c0f7b2291e5b200ac8c7c3b92584604051610d4791815260200190565b60405180910390a350505050565b6001600160a01b038381166000908152600160209081526040808320938616835292905220546000198110156105415781811015610dbf57604051637dc7a0d960e11b81526001600160a01b038416600482015260248101829052604481018390526064016104b0565b61054184848484036000610c80565b6001600160a01b038316610df857604051634b637e8f60e11b8152600060048201526024016104b0565b6001600160a01b038216610e225760405163ec442f0560e01b8152600060048201526024016104b0565b61057a838383610e66565b610e378282610a05565b610c385760405163e2517d3f60e01b81526001600160a01b0382166004820152602481018390526044016104b0565b6001600160a01b038316610e91578060026000828254610e8691906111e1565b90915550610f039050565b6001600160a01b03831660009081526020819052604090205481811015610ee45760405163391434e360e21b81526001600160a01b038516600482015260248101829052604481018390526064016104b0565b6001600160a01b03841660009081526020819052604090209082900390555b6001600160a01b038216610f1f57600280548290039055610f3e565b6001600160a01b03821660009081526020819052604090208054820190555b816001600160a01b0316836001600160a01b03167fddf252ad1be2c89b69c2b068fc378daa952ba7f163c4a11628f55a4df523b3ef83604051610f8391815260200190565b60405180910390a3505050565b600060208284031215610fa257600080fd5b81356001600160e01b031981168114610fba57600080fd5b9392505050565b600060208083528351808285015260005b81811015610fee57858101830151858201604001528201610fd2565b506000604082860101526040601f19601f8301168501019250505092915050565b80356001600160a01b038116811461102657600080fd5b919050565b6000806040838503121561103e57600080fd5b6110478361100f565b946020939093013593505050565b60008060006060848603121561106a57600080fd5b6110738461100f565b92506110816020850161100f565b9150604084013590509250925092565b6000602082840312156110a357600080fd5b5035919050565b600080604083850312156110bd57600080fd5b823591506110cd6020840161100f565b90509250929050565b6000602082840312156110e857600080fd5b610fba8261100f565b6000806040838503121561110457600080fd5b61110d8361100f565b91506110cd6020840161100f565b600181811c9082168061112f57607f821691505b60208210810361114f57634e487b7160e01b600052602260045260246000fd5b50919050565b6020808252601b908201527f546f6b656e206f7065726174696f6e7320617265207061757365640000000000604082015260600190565b6020808252600f908201526e496e76616c6964206164647265737360881b604082015260600190565b6020808252601290820152710416d6f756e74206d757374206265203e20360741b604082015260600190565b808201808211156103da57634e487b7160e01b600052601160045260246000fdfea26469706673582212209e400357480b99e216f036f9593454ffef48a5507a981ccfe3efe83d3b0e0a5a64736f6c63430008140033",
  "linkReferences": {},
  "deployedLinkReferences": {}
}